:020000040800F2
:10000000E06F002091010008BD05000837040008DA
:10001000B9050008050200083914000800000000B6
:100020000000000000000000000000004501000882
:10003000ED030008000000006501000851120008EF
:10004000AB010008AB010008AB010008AB010008E0
:10005000AB010008AB010008AB010008AB010008D0
:10006000AB010008AB010008AB010008AB010008C0
:10007000AB010008AB010008AB010008AB010008B0
:10008000AB010008AB010008AB010008AB010008A0
:10009000AB010008AB010008AB010008AB01000890
:1000A000AB010008AB010008AB010008AB01000880
:1000B000AB010008B5120008AB010008AB01000855
:1000C000AB010008AB010008AB010008AB01000860
:1000D000AB010008CD130008AB010008AB0100081C
:1000E000AB010008AB010008AB010008AB01000840
:1000F000AB010008AB010008AB010008AB01000830
:10010000AB010008AB010008AB010008AB0100081F
:10011000AB010008AB010008AB010008AB0100080F
:10012000AB010008AB010008AB010008AB010008FF
:10013000DFF80CD000F054F8004800479117000891
:10014000E06F002071B601F011F8054C2568D5F874
:1001500000D0BDE8F00F5DF804EB61B6704700BF5A
:100160009800002071B600B52DE9F00F074C256806
:10017000C5F800D000F0FAFF044C2568D5F800D08F
:10018000BDE8F00F5DF804EB61B670479800002001
:100190000648804706480047FEE7FEE7FEE7FEE721
:1001A000FEE7FEE7FEE7FEE7FEE7FEE76512000872
:1001B0003101000830B50B46014600202022012401
:1001C00009E021FA02F59D4205D303FA02F5491B25
:1001D00004FA02F52844151EA2F10102F1DC30BD3B
:1001E000064C074D06E0E06840F0010394E8070084
:1001F00098471034AC42F6D3FFF79EFF8C220008DC
:10020000AC22000800BFFEE710B540F2026001F02A
:1002100037FD4FF4C16001F033FD01230322282193
:10022000084801F046FA4FF40053032248210648DB
:1002300001F03FFA4FF4804303224821024801F0C5
:1002400038FA10BD000801400020014010B540F20E
:10025000026001F015FD40F2066001F011FD4FF45F
:10026000807303221021094801F023FA4FF48071B2
:10027000064801F017FA402303221021044801F038
:1002800018FA4021024801F00BFA10BD00080140A5
:100290000018014010B54FF4407001F043FB10BD51
:1002A00010B501F019FC102001F052FC102001F0F3
:1002B0005FFC0446012C26D101F0D4F9002001F0A6
:1002C0003BFB002001F050FBA00201F041FB0020AD
:1002D00001F016FD002001F01FFD4FF45011200425
:1002E00001F0FEFC182001F033FC00BF192001F0E2
:1002F0001DFC0028FAD0022001F01EFD00BF01F015
:1003000027FD0028FBD010BD7FB504460D4640F206
:10031000017001F0B5FC0F4801F0AEFD684601F038
:100320007EFEADF800500020ADF804000294ADF858
:1003300006006946074801F013FE0121054801F057
:100340005BFE002201211D2001F08AFA014801F024
:1003500001FE7FBD0004004010B504460022114696
:10036000252001F07DFA40F2026001F089FC4FF493
:100370000073032218211B4801F09BF94FF480639E
:1003800003220421174801F094F940F20E6001F0B5
:1003900077FC154801F0A0FE2146134801F04AFE03
:1003A0000021114801F042FF00210F4801F04EFFEB
:1003B00000210D4801F02AFF04210B4801F02EFF17
:1003C0000821094801F03AFF074801F0D5FE40F244
:1003D0000531054801F0E4FE8021034801F0C4FE28
:1003E00010BD00000008014000380140704770B5A2
:1003F0000346002016E00C5CB3F902609D68AC5522
:100400005C88641C24B25C80B3F90240B3F90450E8
:10041000AC4201DB00245C80441C20B2DC88641CFC
:1004200024B2DC80B3F90640B3F90450AC4201DADF
:100430009042E0DB70BD00BFFEE700BFFEE710B5F5
:1004400000F0FEF800F018F910BD30B50B4600249E
:10045000048044808280C4808360002104E0002402
:1004600085686C544C1C21B29142F8DB30BD10B54C
:1004700000F01EF800F018F84FF4E13000F030F80A
:1004800000F020F810BD000010B5FFF7BDFEFF2002
:100490000249087000204870887010BD800000205C
:1004A00010B5FFF7D3FE10BD10B5FFF7F3FE10BD7A
:1004B00010B5FFF7F5FE10BD10B5FFF7F1FFFFF720
:1004C000E3FF10BD10B5772140F2E730FFF71CFFC6
:1004D0000021024A1160516010BD00009000002010
:1004E00010B504464FF4806203490448FFF7ADFF9E
:1004F0002046FFF731FF10BDDC100020D010002097
:1005000011E04FF48071084801F039F9C0F10100A1
:10051000C4B222464FF48071034801F0C5F84FF48D
:10052000967000F04DF8ECE7000801400FE0402124
:10053000074801F024F9C0F10100C4B2224640216D
:10054000034801F0B1F84FF42F7000F039F8EEE7EE
:100550000018014070B50546E81D20F00702154857
:10056000016923E0086800F00046086820F00044B4
:10057000DEB9944219D302F1100084420ED301F186
:1005800008008318A01A083820F000401860486856
:1005900058604B6042F00040086003E0086840F09B
:1005A0000040086001F1080070BD49680029D9D1F8
:1005B0000020F9E7A000002000BFFEE77047000020
:1005C00010B50446124800681249884203D112A0AF
:1005D00000F034FF10BD012000F063FF00200C4943
:1005E0000968C1E906400A48006800F05BFC224641
:1005F00000230748006800F0D7FC002000F051FFFE
:100600000E48006840F080500C49086000BFE1E7E8
:1006100098000020E01500205761726E696E673AFD
:100620002054727920746F2044656C61792049648C
:100630006C655461736B210D0A00000004ED00E04D
:1006400010B500F01BFB0A480A49886000F5A0407D
:10065000C8600846846844F6F87020600020606036
:10066000084604610120087500F00AFB10BD000077
:1006700060160020A000002010B500F0FFFA00F086
:1006800085FC00F0E3FB00F087FC00F0C5FA00F009
:10069000F7FA10BD00B500F0F1FA04480078401CEC
:1006A0000249087000F0ECFA00BD00009C00002038
:1006B00000B500F0E3FA0C480078401E0A490870C3
:1006C0000846007860B909480078012808D1002060
:1006D000064908700648006840F0805004490860E8
:1006E00000F0CEFA00BD00009C0000209D0000201C
:1006F00004ED00E070B5054600F0C0FA15B1B5F59F
:10070000A04F06D314A000F099FE00F0B9FA002023
:1007100070BD1B48007D30B91AA000F08FFE00F0BC
:10072000AFFA0020F4E72846FFF714FF04463CB177
:1007300013488068A04203D21148C068A04206D87E
:1007400018A000F07BFE00F09BFA0020E0E700F02C
:1007500097FA2046DCE700004552524F523A205BA0
:100760004F534D616C6C6F635D20496C6C656761C4
:100770006C20417267756D656E74210D0A00000072
:10078000A00000204552524F523A204D656D6F72C5
:1007900079506F6F6C204E6F7420526561647921BF
:1007A0000D0A00004552524F523A205B4F534D61A3
:1007B0006C6C6F635D3A204661696C20546F204D0C
:1007C000616C6C6F63210D0A0000000070B500F0D1
:1007D00055FA00250E48C0680D498968461A0C482C
:1007E000046909E0206800F0004020B1206820F092
:1007F0000040083005446468002CF3D100F040FA52
:100800004FF47A706843B0FBF6F080B270BD000020
:10081000A00000202DE9F05F05460F46904699465E
:10082000DDE90ABAC5F804B0C5F808A0EF60C5F85C
:100830001080C5F814900021A961E9610020E862E8
:1008400028636863A863002604E00020696841F813
:100850002600761C5645F8D3D5E9010100EB81044A
:1008600024F007044FF08071201F04460160201F10
:100870000446E96801606FF00101201F0446016031
:100880004FF01231201F044601604FF00331201F4A
:10089000044601604FF00231201F044601604910F8
:1008A000201F044601600021201F04460160C91F6B
:1008B000201F044601604FF01131201F04460160E3
:1008C0004FF01031201F044601604FF00931201F06
:1008D000044601604FF00831201F044601604FF0CC
:1008E0000731201F044601604FF00631201F0446E7
:1008F00001604FF00531201F044601604FF00431C4
:10090000201F044601602C60284600F02FFB05F1F3
:1009100044000C9900F004FB28460D9900F050FAB1
:10092000284600F0A3FA0020BDE8F09F10B5044669
:1009300000F0A4F92CB917A000F080FD00F0A0F998
:1009400010BD2078012805D01CA000F077FD00F034
:1009500097F9F5E7E06828B1E068401EE06000F034
:100960008FF9EDE71F48006800F09CFA1D48016808
:10097000201D00F09BF903201A49096881F8200026
:1009800018480068446200F07BF900F0B7FA00BF35
:10099000D6E700004552524F523A5B4F5353656DB4
:1009A00050656E645D20496C6C6567616C20617296
:1009B00067756D656E74210D0A0000004552524F37
:1009C000523A5B4F5353656D50656E645D20496EBE
:1009D0007661696C642053656D61706F7265210D7D
:1009E0000A0000009800002070B5044600F046F9A7
:1009F0002CB91AA000F022FD00F042F970BD207859
:100A0000012805D01FA000F019FD00F039F9F5E725
:100A1000261D306858B9D4E90301884203D323A0C6
:100A200000F00CFD13E0E068401CE0600FE0304691
:100A300000F032F905462946304600F081F9284693
:100A400000F014FA012085F820000020686200F010
:100A500017F900F053FA00BFD0E700004552524F9B
:100A6000523A5B4F5353656D506F73745D20496C00
:100A70006C6567616C20617267756D656E74210DC0
:100A80000A0000004552524F523A5B4F5353656D76
:100A9000506F73745D20496E7661696C6420536594
:100AA0006D61706F7265210D0A0000005761726EF2
:100AB000696E673A5B4F5353656D506F73745D2079
:100AC00053656D61706F72652069732046554C4C9B
:100AD000210D0A001FB51E48006840F400701C4933
:100AE0000860002040221B4BCDE9012000930390B9
:100AF0001F2319A21B491C48FFF78CFE1B480068E6
:100B00004FF47A71B0FBF1F4601EB0F1807F00D336
:100B10000FE0601E4FF0E02148610F214FF0FF30E1
:100B200000F09CFC00204FF0E02188610720086164
:100B300000BF0021481E00F091FC0121881F00F039
:100B40008DFCFF216FF0010000F088FC03DF1FBD6A
:100B500014ED00E0E014002049646C655461736B8F
:100B6000000000003B040008E0150020C400002045
:100B700010B50446202C03D307A000F05FFC10BD85
:100B8000C4F11F040120A0400E49096881430D48AB
:100B9000016000BFF3E700004552524F523A205B1C
:100BA0004F535F4269744D61705365745D20496CA9
:100BB0006C6567616C20417267756D656E74210D9F
:100BC0000A000000B800002010B50648006820B9EF
:100BD00005A000F033FC00BFFEE702480068B0FA51
:100BE00080F010BDB80000204552524F523A205BB1
:100BF0004F535F4269744D61704765744869676817
:100C00006573745D204E6F20526561647920546174
:100C1000736B210D0A000000002001490860704735
:100C2000B800002010B50446202C03D307A000F024
:100C300005FC10BDC4F11F040120A0400E49096845
:100C400008430D49086000BFF3E700004552524FCA
:100C5000523A205B4F535F4269744D617053657423
:100C60005D20496C6C6567616C20417267756D65CC
:100C70006E74210D0A000000B800002072B67047A3
:100C800062B6704703480078002801DD01207047F4
:100C90000020FCE79C000020014609B1086870476D
:100CA0000020FCE700210160416070472DE9F04120
:100CB00006460C4606B124B915A000F0BFFBBDE8FE
:100CC000F081306828B900202064E06334607460EB
:100CD000F5E7D4F814803568002701E02F46ED6B66
:100CE00015B168694045F9D32FB92C640020206400
:100CF000E56334600AE02DB9FC6327640020E063FB
:100D0000746003E0FC632C642764E56300BFD6E7EE
:100D10004552524F523A205B4F535F50656E644CC0
:100D2000697374496E736572745D20496C6C656794
:100D3000616C20417267756D656E74210D0A00004B
:100D40002DE9F04105460C4605B124B910A000F08C
:100D500075FBBDE8F081206C28B9E06B18B9002064
:100D600028606860F5E7276CE66B27B900203064DF
:100D7000E0632E600AE026B90020F86320646F600B
:100D800004E0FE63376400202064E06300BFE0E716
:100D90004552524F523A205B4F535F50656E644C40
:100DA00069737452656D6F76655D20496C6C65671B
:100DB000616C20417267756D656E74210D0A0000CB
:100DC00070B506460D461EB90DA000F037FB70BD8C
:100DD00005B9FCE706F15804032020702846FFF708
:100DE00089FC6060606820B90FA000F027FB00BF9D
:100DF000FEE7A5600020E0602061606100BFE6E7DB
:100E00004552524F523A5B4F535F51496E69745D80
:100E100020496C6C6567616C20617267756D656EE9
:100E200074210D0A000000004552524F523A5B4FA8
:100E3000535F51496E69745D204D616C6C6F632026
:100E40004661696C6564210D0A000000002008E01D
:100E50000021054A42F8301002EBC0025160411CEB
:100E6000C8B22028F4DB7047E066002070B5044665
:100E700004B970BD66690A4800EBC6050020E0624F
:100E8000286818B9002020632C6003E0686820639C
:100E90006868C4626C603046FFF7C4FE00BFE8E7D4
:100EA000E066002070B5044604B970BD666912485A
:100EB00000EBC605206B38B9E06A2860E06A88B1AB
:100EC0000020E16A08630DE0E06A28B9206B6860E1
:100ED0000020216BC86205E0D4E90B01C862D4E9A7
:100EE0000B1008630020E0622063286810B93046C8
:100EF000FFF73EFE00BFD8E7E066002000B5012006
:100F000005490870FFF7BEFE28B90448006840F0A4
:100F100080500249086000BD9D00002004ED00E003
:100F200070B504460D461CB906A000F087FA70BDE6
:100F300001202070201DFFF7B5FE0020E060256134
:100F400000BFF4E74552524F523A5B4F535F53652F
:100F50006D496E69745D20496C6C6567616C2061D8
:100F60007267756D656E74210D0A0000014601B946
:100F70007047054800E0806A826A002AFBD18162DE
:100F80008A6200BFF4E7000060660020002001498B
:100F9000886270476066002000200249086048604F
:100FA00070470000BC0000202DE9F04704461746BA
:100FB00098460CB9BDE8F0870022D4E906015040FC
:100FC0005140084303D12046FFF750FFF2E700BF2E
:100FD0002D48006840B9C4E9067800206063A0632A
:100FE000294804604460E5E72748D0F800904FF0B6
:100FF000000A3D46464637E0D9E90610491BB04194
:101000002AD3D9F8380098B9C4E906560020A0635D
:10101000C4F83490D9E90610491B60EB0600C9E911
:101020000610C9F8384018480460C0F8049012E06F
:10103000D9F838A0C4E90656C4F838A0C4F83490EA
:10104000D9E90610491B60EB0600C9E90610C9F88A
:101050003840CAF83440ADE7D9E906126D1A66EB9C
:101060000206CA46D9F83490B9F1000FC4D1C4E9D8
:101070000656C4F838A000206063CAF8344002481D
:10108000446000BF96E70000BC00002070B5044635
:101090001CB91AA000F0D2F970BDA66B656BBEB981
:1010A00035B90020A06360631E490860486023E0F2
:1010B0000020A863D5E90630D4E90612591850413A
:1010C000C5E906100020A06360631648056013E0C0
:1010D00075634DB1AE63D5E90630D4E906219A189F
:1010E0004841C5E9062001E00E4846600020A063A3
:1010F00060630021A161E16100BFCDE75761726EBD
:10110000696E673A2054727920746F2072656D6F32
:1011100076652061204E554C4C205461736B210D37
:101120000A000000BC00002010B500240E4804682E
:1011300004B910BDD4E90620521E60F10000C4E9D4
:10114000062007E02046FFF7A1FF2046FFF78EFEAE
:101150000548046834B10023D4E9061059405840CA
:101160000143EFD000BFE4E7BC00002010B5FFF75B
:1011700085FDFFF729FD0446034850F83400034974
:101180000860FFF77DFD10BDE0660020980000209C
:1011900070B504460D4616462848005D4006000E10
:1011A0002649085524B1012C0CD0022C20D114E082
:1011B0000121234800F0DBFA2049095D08431F495B
:1011C000085516E04FF400511E4800F0D0FA1B49B4
:1011D000095D0843194908550BE04FF4804119484F
:1011E00000F0C5FA1549095D08431449085500E0A7
:1011F00000BF00BF1148005D1349095D88420AD154
:101200001248005D012806D106B1B04700200F4901
:101210000855012070BD0948005D0B49095DC943AF
:10122000C9B2884207D10948005D20B905B1A84775
:101230000120064908550020ECE70000830000204B
:1012400000080140002001408000002086000020AE
:1012500010B5FFF71FFAFFF767FFFFF74FFEFFF725
:1012600027FA10BD10B51048006840F470000E4910
:1012700008600E48006840F001000C49086000203A
:101280004860C86208460068094908400749086084
:101290004FF41F0088600846006820F48020086032
:1012A00000F0E6FD10BD000088ED00E000100240F7
:1012B000FFFFF6FE10B50121094800F0A4FE012849
:1012C00003D10121064800F09BFE0648D0E900202A
:1012D000521C40F100000349C1E9002010BD00008C
:1012E000000400409000002018E000221146104643
:1012F000FFF74EFF28B10AA000F0A0F81248FFF750
:1013000073FB002211460120FFF742FF0022114625
:101310000220FFF73DFF0A20FFF752F9E5E7000042
:101320005B5461736B315D20506F737420312053B7
:10133000656D6170686F726520746F205461736BA6
:1013400033210D0A000000009410002012E00AA0D2
:1013500000F074F80F48FFF7E9FA0FA000F06EF8FC
:101360000C484438016D12A000F068F840F6B8301F
:10137000FFF726F9EBE700005B5461736B335D20E8
:1013800050656E6420466F722053656D2E2E2E0DB3
:101390000A000000941000205B5461736B335D20E1
:1013A0004765742053656D2E2E2E0D0A0000000037
:1013B0005B5461736B335D2053656D20436F756EB5
:1013C00074203D2025640D0A0000000008B50020AF
:1013D0000090FFF75FF91349134800F0FBFE80B15E
:1013E0001049114800F0E9FE0F4800F06BFEC0B252
:1013F0000090012269460D48FEF7F9FF0C48FFF7FF
:10140000F3FA0C49084800F0E5FE012806D1094925
:10141000054800F0D2FE044800F054FEFFF748F9FA
:1014200008BD00000503050000380140D010002071
:10143000941000200005030000BFFEE70FB4054B29
:1014400010B503A9044A029800F030F810BC5DF80A
:1014500014FB00007D160008C800002010B500280D
:1014600004DB0A07130E054A135406E00A07140E9C
:10147000034A00F00F031B1FD45410BD00E400E02A
:1014800018ED00E002E008C8121F08C1002AFAD1D6
:1014900070477047002001E001C1121F002AFBD1F4
:1014A0007047C1B281F31188704700002DE9FF4FEA
:1014B0008BB09A460F460546002606E025280BD03D
:1014C00052460D9990476D1C761C28780028F5D15E
:1014D0000FB03046BDE8F08F0024A04601226049DD
:1014E00000E0044315F8013F203B02FA03F00842F4
:1014F000F7D128782E2817D115F8010F44F00404ED
:101500002A280ED06FF02F022878A0F13001092987
:101510000AD808EB880102EB410100EB01086D1CC1
:10152000F2E757F8048B6D1C287869283ED006DC5A
:101530000028CDD063280BD0642804D136E073286E
:1015400010D075284BD052460D999047761C85E0F7
:1015500017F8040B8DF8000000208DF80100E94613
:10156000012003E057F8049B4FF0FF3061074FF074
:10157000000401D40AE0641C44450DDA8442FADB1D
:1015800019F804100029F6D106E0641C8442FCDB43
:1015900019F804100029F8D1264404E019F8010BC9
:1015A00052460D999047641EF8D257E001CF4FF094
:1015B0000A0B002802DA40422D2102E0210504D561
:1015C0002B218DF82410012103E0E10705D0202113
:1015D000F7E70DF1200908910CE00021F9E701CFB0
:1015E0004FF00A0BF9E75946FEF7E4FD01F130022E
:1015F00009F8012D0028F6D1ADEB090000F1200B10
:10160000600701D44FF00108D84502DDA8EB0B00BC
:1016100000E000208046002406E009A85246005D54
:101620000D999047641C761C08988442F5DB04E011
:10163000302052460D999047761CB8F10001A8F170
:101640000108F5DC05E019F8010B52460D999047A9
:10165000761CBBF10001ABF1010BF4DC6D1C34E72F
:1016600009280100044A116821F0070141EA00023B
:10167000014B1A60704700000020024070B504461C
:101680000D46E1B2054800F022FD00BF07210348E6
:1016900000F077FD0028F9D0204670BD00380140E9
:1016A00041617047016170470AB1016100E0416129
:1016B0007047F0B5044616460025002201F00F05DC
:1016C00001F0100747B1042E05D145F00305E76B83
:1016D0001F43E76300E0354300201EE001278740F9
:1016E0001F40C7B122684FEA800C0F2707FA0CF79A
:1016F000BA43870005FA07F73A43282904D101279E
:1017000087401F40676105E0482903D101278740D2
:101710001F4027612260471CB8B20828DED308208A
:1017200022E0012787401F40E7B16268A0F1080767
:101730004FEA870C0F2707FA0CF7BA43A0F1080706
:10174000BF0005FA07F73A43282904D1012787404B
:101750001F40676105E0482903D1012787401F40EA
:1017600027616260471CB8B21028DAD3F0BD024688
:101770009068084008B1012070470020FCE702464D
:10178000D068084008B1012070470020FCE7000045
:101790007FB5FEF76CFEFEF78FFEFEF750FE20A031
:1017A000FFF74CFE002433E0254800EB4410C069ED
:1017B000234901EB44118969214A02EB4412526921
:1017C0001F4B03EB44131B691D4E06EB4416CDE97A
:1017D0000032CDE90210F368194E06EB4416B268E8
:1017E000174E06EB44167168154E06EB441630682A
:1017F000FFF710F805464DB1114800EB44102A469A
:10180000816810A0FFF71AFE00BFFEE7601CC4B29B
:10181000042CC9D3FFF75EF9002004B070BD0000AE
:10182000496E69742053797374656D206861732003
:101830006265656E2066696E69736865640D0A008D
:10184000000000204661696C20746F20637265613E
:10185000746520257320282564290D0A00000000E6
:101860002DE9F04103460D46164600240027A04608
:101870002A48006800F4E060B0F5E06F03D100BFD3
:101880004FF0040830E02548006800F4E060B0F54F
:10189000C06F03D101274FF0030825E01F480068FF
:1018A00000F4E060B0F5A06F02D10227B8461BE05B
:1018B0001A48006800F4E060B0F5806F03D1032798
:1018C0004FF0010810E01548006800F4E060B0F542
:1018D000407F03D104274FF0000805E04FF4A060DB
:1018E00000F020F80227B846C7F1040005FA00F41A
:1018F000C8F104010F20C8403040044324010848C7
:10190000C45403F01F01012088405911890001F1DE
:10191000E021C1F80001BDE8F08100000CED00E01D
:1019200000E400E002490143024A116070470000F0
:101930000000FA050CED00E0044A516821F0F001C6
:1019400041EA0002014B5A6070470000001002405B
:10195000044A516821F4E06141EA0002014B5A60F7
:101960007047000000100240044A516821F46051A1
:1019700041EA0002014B5A6070470000001002402B
:101980002DE9F04F8CB0074600200A904AA090E85D
:10199000004CC068CDE905BECDF810A007900FF24D
:1019A0001C1ADAE9000ACDE9020A0FF2101ADAE984
:1019B000000ACDE9000A44484068C0F381000B905A
:1019C0000B9820B1012804D002283FD103E03F4A00
:1019D0003EE03E4A3CE03C48406800F4803CBCF5B8
:1019E000803F12D13848C06A00F08048B8F1000F3B
:1019F00001D1364C00E0364C3348406800F40039E1
:101A0000B9F5003F02D1334C00E0324C2E4840681B
:101A1000C0F383412C48406800F0006008B141F0F9
:101A200010012948406800F0804008B141F02001D1
:101A30000F2901D2891C06E00F2903D33E2901D8C2
:101A4000491C00E03F2104FB01F201E01F4A00BFF6
:101A500000BF1D484068C0F3031504A8465D22FA84
:101A600006F319484068C0F3022502A8465D23FA30
:101A700006F0099014484068C0F3C2251DF80560BF
:101A800023FA06F0089037B1012F06D0022F06D0B6
:101A9000032F0AD106E00A9208E00A9306E00998AB
:101AA0000A9003E008980A9000E000BF00BF0A987F
:101AB0000CB0BDE8F08F0000000000000000000046
:101AC00001020304060708090010024000127A0010
:101AD000006CDC0200093D0000B51148006840F0D0
:101AE00001000F490860002000F042F80C484068EF
:101AF0000C4908400A494860084600680A490840FD
:101B0000074908600846006820F4802008604FF408
:101B10001F0088600846C06A20F0C040C86200BD4F
:101B2000001002400C000020FFFFF6FE0146074AAD
:101B300002EB9110006801F01F0301229A4010404F
:101B400008B1012070470020FCE7000000100240AF
:101B5000064A02EB9011096800F01F0301229A4027
:101B60001143024B03EB90121160704700100240CA
:101B7000F0B50646002400270025B6F5006F1FD0FB
:101B800005DC86B3102E0BD0182E72D160E0B6F5AE
:101B9000106F4BD0A6F540501038002869D133E0C3
:101BA00004E01120FFF7C2FF0546641C15B9B4F527
:101BB000006FF6D11120FFF7B9FF00B1012759E0FE
:101BC00005E040F60100FFF7B1FF0546641C1DB9B2
:101BD0006FF07C408442F4D140F60100FFF7A6FF8D
:101BE00000B1012746E0FFE704E00120FFF79EFF78
:101BF0000546641C15B9B4F5A06FF6D10120FFF7B6
:101C000095FF00B1012735E005E043F21100FFF731
:101C10008DFF0546641C15B918488442F5D143F27E
:101C20001100FFF783FF00B1012723E005E040F634
:101C30000110FFF77BFF0546641C15B90F4884426D
:101C4000F5D140F60110FFF771FF00B1012711E057
:101C500004E01920FFF76AFF0546641C15B9074820
:101C60008442F6D11920FFF761FF00B1012701E09E
:101C7000FFE700BF00BF3846F0BD0000FFFF0F00C8
:101C8000064A02EB9011096800F01F0301229A40F6
:101C90001143024B03EB9012116070470010024099
:101CA000064A02EB9011096800F01F0301229A40D6
:101CB0009143024B03EB90121160704700100240F9
:101CC000064A02EB9011096800F01F0301229A40B6
:101CD0001143024B03EB9012116070470010024059
:101CE00002460020044B5868044B184042EA0103A6
:101CF0001843014B5860704700100240FFFFC2B705
:101D000001460020034AD06A20F080400843D06298
:101D1000704700000010024001460020054A50684C
:101D200020F40030012901D140F40030014A506014
:101D30007047000000100240044A516821F003017E
:101D400041EA0002014B5A60704700000010024057
:101D50000248406800F00C0070470000001002408C
:101D6000002000213E4A126842F480323C4B1A6047
:101D700000BF401C3A4A126802F4003111B9B0F5B4
:101D8000006FF6D1364A126802F400320AB900BF79
:101D9000FEE7334AD26942F08052314BDA61314A70
:101DA000126842F440422F4B1A602D4A52682C4B65
:101DB0005A601A4652685A601A46526842F4806263
:101DC0005A601A46526822F440325A601A465268E3
:101DD00042F440325A601A465268234B1A40204B54
:101DE0005A601A465268214B1A431D4B5A601A46D4
:101DF000126842F080721A6000BF194A126802F03D
:101E00000072002AF9D0174A126842F48032154B4A
:101E10001A6000BF134A526802F48032002AF9D0D7
:101E2000104A126842F400320E4B1A6000BF0D4A8D
:101E3000526802F40032002AF9D0094A526822F0AE
:101E40000302074B5A601A46526842F002025A6077
:101E500000BF034A526802F00802002AF9D0704716
:101E60000010024000700040FFFFC3B700003408BC
:101E700010B5FFF775FF10BD10B504463349601A61
:101E80008C4244D00CDCB4F1804F1CD0304820444C
:101E900010B3B0F5806F28D0B0F5006F52D12DE0AF
:101EA000B0F5806F3CD0B0F58E3F03D0B0F5923FD7
:101EB00048D13EE040F20B30FFF702FF40F20B301A
:101EC000FFF7EEFE3FE04FF48060FFF7F9FE4FF4BE
:101ED0008060FFF7E5FE36E040F20140FFF7F0FEDC
:101EE00040F20140FFF7DCFE2DE040F20240FFF738
:101EF000E7FE40F20240FFF7D3FE24E040F2034049
:101F0000FFF7DEFE40F20340FFF7CAFE1BE040F29F
:101F10000440FFF7D5FE40F20440FFF7C1FE12E097
:101F200040F20540FFF7CCFE40F20540FFF7B8FE57
:101F300009E040F20D30FFF7C3FE40F20D30FFF72D
:101F4000AFFE00E000BF00BF10BD00000010004069
:101F500000FCFFBF016841F0010101607047000013
:101F60000A8882621D4A90420ED0B0F1804F0BD099
:101F70001B4A904208D01B4A904205D01A4A904210
:101F800002D01A4A90420BD1026822F0700202601D
:101F900002684B881A43026002688B881A43026009
:101FA0008A68C262124A90420AD0124A904207D00E
:101FB000026822F4407202600268CB881A43026011
:101FC000064A904202D0094A904201D10A7B02633C
:101FD000426942F00102426170470000002C01405A
:101FE0000004004000080040000C004000340140A4
:101FF0000010004000140040C2680A43C2607047ED
:10200000CA43026170470246D06800EA01031069C2
:10201000084010B10BB1012070470020FCE70021FF
:102020000180418081804FF6FF7181600021C18075
:10203000017370472DE9F04704460D460027B84666
:10204000B94600261D49601A8C421CD006DC1C488B
:10205000204470B1B0F5806F1FD10FE0B0F5806FF4
:1020600016D0B0F56C4F18D10320FFF789FC074656
:1020700014E00220FFF784FC07460FE00220FFF780
:102080007FFC07460AE00220FFF77AFC074605E0DE
:102090000220FFF775FC074600E000BF00BF07EB1A
:1020A0005500B0FBF5F64FF6F07006EA000806F0B2
:1020B0000F0948EA0900A060BDE8F087004C004025
:1020C00000BCFFBF01464868C0F308007047C1F379
:1020D000080242607047000010B504462049601AAB
:1020E0008C4228D006DC1F48204490B1B0F5806FA8
:1020F00033D117E0B0F5806F26D0B0F56C4F2CD1FE
:1021000040F20E30FFF7DCFD40F20E30FFF7C8FD65
:1021100024E040F21140FFF7D3FD40F21140FFF7F9
:10212000BFFD1BE040F21240FFF7CAFD40F2124033
:10213000FFF7B6FD12E040F21340FFF7C1FD40F299
:102140001340FFF7ADFD09E040F21440FFF7B8FD82
:1021500040F21440FFF7A4FD00E000BF00BF10BD37
:10216000004C004000BCFFBF0A460021416921F03D
:102170008001114341617047C16841F40051C16061
:10218000704710B5024602EB9110006801F01F0481
:102190000123A340184008B1012010BD0020FCE736
:1021A00010B500EB9112126801F01F040123A34047
:1021B0001A4300EB91131A6010BD10B500EB915259
:1021C0001268C1F304440123A3409A4300EB9153E6
:1021D0001A6010BD70B5024600230024C1F38910B7
:1021E000105801F01F060125B54000EA050302EB77
:1021F00091500068C1F304460125B54000EA05048A
:1022000014B10BB1012070BD0020FCE7C26822F4BC
:10221000C062C260C2680A43C26070470A460021B9
:10222000C16821F004011143C1607047026922F4C2
:102230004052026102690A43026170470A46002166
:10224000C16821F008011143C1607047C26822F4DF
:102250008052C260C2680A43C2607047546573749A
:102260005461736B31000000546573745461736B77
:10227000330000004C4544315461736B0000000092
:102280004C4544325461736B00000000AC220008DE
:1022900000000020CC00000084140008782300080F
:1022A000CC000020146F000094140008D00200201D
:1022B000010500087422000801000000D000002081
:1022C0008000000000000000000000005005002019
:1022D0002D050008802200080200000050030020A5
:1022E000800000000000000000000000D00D002071
:1022F000E91200085C22000803000000D00500205D
:1023000000020000050000008000000050100020C6
:102310004D1300086822000805000000500E002040
:102320008000000005000000000200000000000026
:10233000000000000000000000000000000000009D
:10234000000000000000000000000000410600083E
:10235000CD070008000000000000000000000000A1
:10236000000000000000000000000000000000006D
:08237000000E27070000000029
:0400000508000131BD
:00000001FF
