:020000040800F2
:10000000E06F002091010008190B00089509000815
:10001000150B0008F5060008051600080000000092
:100020000000000000000000000000004501000882
:10003000DD0800080000000065010008E514000864
:10004000AB010008AB010008AB010008AB010008E0
:10005000AB010008AB010008AB010008AB010008D0
:10006000AB010008AB010008AB010008AB010008C0
:10007000AB010008AB010008AB010008AB010008B0
:10008000AB010008AB010008AB010008AB010008A0
:10009000AB010008AB010008AB010008AB01000890
:1000A000AB010008AB010008AB010008AB01000880
:1000B000AB01000849150008AB010008AB010008BE
:1000C000AB010008AB010008AB010008AB01000860
:1000D000AB010008A5150008AB010008AB01000842
:1000E000AB010008AB010008AB010008AB01000840
:1000F000AB010008AB010008AB010008AB01000830
:10010000AB010008AB010008AB010008AB0100081F
:10011000AB010008AB010008AB010008AB0100080F
:10012000AB010008AB010008AB010008AB010008FF
:10013000DFF80CD000F0BCFA004800475920000856
:10014000E06F002071B601F05BF9054C2568D5F829
:1001500000D0BDE8F00F5DF804EB61B6704700BF5A
:100160009800002071B600B52DE9F00F074C256806
:10017000C5F800D001F044F9044C2568D5F800D04A
:10018000BDE8F00F5DF804EB61B670479800002001
:100190000648804706480047FEE7FEE7FEE7FEE721
:1001A000FEE7FEE7FEE7FEE7FEE7FEE7F9140008DC
:1001B000310100082DE9FE4F804681EA0300C00F9F
:1001C0000C46009021F0004123F00045B8EB0200FE
:1001D000A94105D24046214690461C460B460246A0
:1001E00023F00040104347D0270DC7F30A00C3F3A4
:1001F0000A510290401A019040286BDAC3F31300B1
:1002000040F4801B0098924620B10023D2EB030AF1
:1002100063EB0B0B01985946C0F14002504600F0C9
:10022000B7F806460D4650465946019A00F0BFF809
:1002300010EB08006141002487EA115284EAE77359
:100240001A4340D0009A62B3019A012A4FEA07523A
:1002500015DC001B61EB02014FF0004202EA07527D
:10026000CDE90042001C41F5801132462B4600F0DA
:10027000BFF803B0BDE8F08F40462146F9E7001B08
:1002800061EB0201001C41F5801300185B4120184E
:10029000A2F5001747EB030140EAD570B6196D418E
:1002A00011E06D084FEA360645EAC0754FEA07527D
:1002B000001B61EB0201001C41F5801149084FEA67
:1002C00030000019514132462B4603B0BDE8F04FD3
:1002D00000F07FB80098012240000023D0EB02021A
:1002E00063EBE073009821464FEAE074B8EB00003E
:1002F00061EB0401E9E783F000435BE781F0004133
:1003000058E730B50B46014600202022012409E0C1
:1003100021FA02F59D4205D303FA02F5491B04FABE
:1003200002F52844151EA2F10102F1DC30BD2DE9D1
:10033000F05F0546002092469B4688460646814669
:1003400040241BE0284641464746224600F0C2F9B9
:1003500053465A46C01A914110D3114618462246B8
:1003600000F016F82D1A67EB01084F4622460120CF
:10037000002100F00DF817EB00094E41201EA4F1FA
:100380000104DFDC484631462A464346BDE8F09F7B
:10039000202A04DB203A00FA02F100207047914045
:1003A000C2F1200320FA03F3194390407047202A3A
:1003B00006DBCB17203A41FA02F043EAE07306E08D
:1003C00041FA02F3D040C2F120029140084319469D
:1003D000704710B5141E73F1000408DA401C41F197
:1003E000000192185B411A4301D120F0010010BDB9
:1003F0002DE9F04D92469B4611B1B1FA81F202E02F
:10040000B0FA80F220329046FFF7C2FF04460F4652
:1004100040EA0A0041EA0B0153465A46084313D00A
:10042000114653EA010019D0C8F14002504600F0CD
:1004300051F905460E46504659464246FFF7A8FF79
:10044000084305D0012004E020463946BDE8F08D80
:100450000020054346EAE0762C4337430A986305BB
:10046000E40AA0EB08000022FD0A44EA47540A30DF
:1004700002D500200146E9E7010510196941DDE9CF
:10048000084500196941BDE8F04DA2E72DE9FE4F8E
:1004900081EA030404F0004421F0004100944FF08D
:1004A000000B23F0004350EA01045ED052EA03043B
:1004B0005BD0C3F30A54C1F30A552C44A4F2F334BD
:1004C0000194A0FB0254C1F3130141F48011C3F362
:1004D000130343F4801301FB024400FB034E840A20
:1004E000970A44EA815447EA8357A4FB07680295B8
:1004F0008D0A05FB07854FEA932C04FB0C54270556
:10050000029D4FEA065847EA1637B5EB08056EEB31
:10051000070C870E920E47EA811742EA8312A7FB67
:100520000201B6EB0B0164EB00042B0D43EA0C3324
:100530005E1844EB1C50DA465146E7FB0201C5F356
:1005400013044FEA0B3343EA14534FEA0432019C7D
:1005500043EA0603A4F10C040294009CCDE900B424
:10056000FFF746FF03B0BDE8F08F00200146F9E732
:100570002DE9F04D81EA030404F0004B21F0004521
:1005800014464FF0000A23F0004150EA050220D043
:1005900054EA01021DD0C5F30A570246C5F31303FE
:1005A000C1F31300C1F30A5640F4801543F48013DD
:1005B000A7EB0608101BD64608F2FD3873EB0500C2
:1005C00002D308F1010801E092185B41B8F1000F75
:1005D00003DA00200146BDE8F08D00204FF48011C1
:1005E000064684460EE0171B73EB050705D3121B66
:1005F00063EB050306434CEA010C49084FEA30005F
:1006000092185B4150EA0107EDD152EA030012D083
:1006100082EA040083EA0501084305D0101BAB41C0
:1006200006D20122002306E000224FF0004302E040
:100630006FF0010253101AEB06004CEB085110EB5F
:100640000A0041EB0B01BDE8F04DFFF7C2BEC1F35C
:100650000A52C1F3130140F2FF3341F480119A4270
:1006600002DA00200146704740F233439A42A2F278
:10067000334202DC524200F02DB8FFF789BE000081
:1006800030B5041E71F1000404DB4FF00044404219
:1006900064EB0101141E73F1000405DB1C464FF0EE
:1006A0000043524263EB0403994208BF904230BDBD
:1006B000064C074D06E0E06840F0010394E80700AF
:1006C00098471034AC42F6D3FFF736FD502B0008A4
:1006D000702B0008202A04DB203A21FA02F00021C6
:1006E000704721FA02F3D040C2F120029140084342
:1006F0001946704700BFFEE710B540F2026001F0F6
:1007000023FF4FF4C16001F01FFF012303222821C2
:10071000084801F032FC4FF40053032248210648F8
:1007200001F02BFC4FF4804303224821024801F0E2
:1007300024FC10BD000801400020014010B540F22B
:10074000026001F001FF40F2066001F0FDFE4FF48F
:10075000807303221021094801F00FFC4FF48071CF
:10076000064801F003FC402303221021044801F055
:1007700004FC4021024801F0F7FB10BD00080140D5
:100780000018014010B54FF4407001F02FFD10BD6E
:1007900010B501F005FE102001F03EFE102001F022
:1007A0004BFE0446012C26D101F0C0FB002001F0D5
:1007B00027FD002001F03CFDA00201F02DFD0020EE
:1007C00001F002FF002001F00BFF4FF45011200454
:1007D00001F0EAFE182001F01FFE00BF192001F011
:1007E00009FE0028FAD0022001F00AFF00BF01F044
:1007F00013FF0028FBD010BD7FB504460D4640F224
:10080000017001F0A1FE0F4801F09AFF684602F066
:100810006AF8ADF800500020ADF804000294ADF87D
:1008200006006946074801F0FFFF0121054802F074
:1008300047F8002201211D2001F076FC014801F05B
:10084000EDFF7FBD0004004010B5044600221146B4
:10085000252001F069FC40F2026001F075FE4FF4C2
:100860000073032218211B4801F087FB4FF48063BB
:1008700003220421174801F080FB40F20E6001F0D2
:1008800063FE154802F08CF82146134802F036F852
:100890000021114802F02EF900210F4802F03AF928
:1008A00000210D4802F016F904210B4802F01AF954
:1008B0000821094802F026F9074802F0C1F840F281
:1008C0000531054802F0D0F88021034802F0B0F865
:1008D00010BD00000008014000380140704770B5AD
:1008E0000346002016E00C5CB3F902609D68AC552D
:1008F0005C88641C24B25C80B3F90240B3F90450F4
:10090000AC4201DB00245C80441C20B2DC88641C07
:1009100024B2DC80B3F90640B3F90450AC4201DAEA
:100920009042E0DB70BD00002DED028B00249FEDB6
:100930000E0BB0EE408AF0EE608A14E0641C9FED6E
:100940000C0B53EC102B51EC180BFFF733FC41EC64
:10095000180B53EC182B214607A000F055FE4FF45E
:100960007A7000F0DBF8E9E700000000000000000A
:100970009A9999999999B93F4650555461736B3A30
:100980002061203D2025642C2062203D20252E3230
:10099000660D0A0000BFFEE700BFFEE710B500F0DD
:1009A000FDF800F017F910BD30B50B4600240480A7
:1009B00044808280C4808360002104E00024856834
:1009C0006C544C1C21B29142F8DB30BD10B500F0E4
:1009D0001DF800F017F84FF4E13000F02FF800F0A8
:1009E0001FF810BD10B5FFF787FEFF200249087001
:1009F00000204870887010BD8000002010B5FFF7FF
:100A00009DFE10BD10B5FFF7BDFE10BD10B5FFF780
:100A1000BFFE10BD10B5FFF7F1FFFFF7E3FF10BDFC
:100A200010B5772140F2E730FFF7E6FE0021024AD9
:100A30001160516010BD00009000002010B5044608
:100A40004FF4806203490448FFF7AEFF2046FFF7EA
:100A5000FBFE10BDDC100020D010002011E04FF490
:100A60008071084801F0EFFAC0F10100C4B22246DB
:100A70004FF48071034801F07BFA4FF4967000F058
:100A80004DF8ECE7000801400FE04021074801F075
:100A9000DAFAC0F10100C4B222464021034801F055
:100AA00067FA4FF42F7000F039F8EEE700180140B4
:100AB00070B50546E81D20F007021548016923E0DE
:100AC000086800F00046086820F00044DEB994424F
:100AD00019D302F1100084420ED301F108008318EB
:100AE000A01A083820F000401860486858604B6031
:100AF00042F00040086003E0086840F000400860F1
:100B000001F1080070BD49680029D9D10020F9E73A
:100B1000A000002000BFFEE77047000010B50446AB
:100B2000124800681249884203D112A000F06CFDFF
:100B300010BD012000F09BFD00200C490968C1E9AF
:100B400006400A48006800F0F7FA224600230748EA
:100B5000006800F073FB002000F089FD0E4800687B
:100B600040F080500C49086000BFE1E79800002089
:100B7000E01500205761726E696E673A20547279F1
:100B800020746F2044656C61792049646C65546100
:100B9000736B210D0A00000004ED00E010B500F0B9
:100BA00047FA0A480A49886000F5A040C86008462C
:100BB000846844F6F8702060002060600846046194
:100BC0000120087500F036FA10BD00006016002004
:100BD000A000002010B500F02BFA00F021FB00F07F
:100BE0007FFA00F023FB00F0F1F900F023FA10BDCA
:100BF00000B500F01DFA04480078401C0249087056
:100C000000F018FA00BD00009C00002000B500F0C4
:100C10000FFA0C480078401E0A4908700846007810
:100C200060B909480078012808D1002006490870F9
:100C30000648006840F080500449086000F0FAF966
:100C400000BD00009C0000209D00002004ED00E09D
:100C500070B5054600F0ECF915B1B5F5A04F06D317
:100C600014A000F0D1FC00F0E5F9002070BD1B4895
:100C7000007D30B91AA000F0C7FC00F0DBF90020BD
:100C8000F4E72846FFF714FF04463CB11348806898
:100C9000A04203D21148C068A04206D818A000F0B4
:100CA000B3FC00F0C7F90020E0E700F0C3F92046EC
:100CB000DCE700004552524F523A205B4F534D61E2
:100CC0006C6C6F635D20496C6C6567616C20417270
:100CD00067756D656E74210D0A000000A00000208C
:100CE0004552524F523A204D656D6F7279506F6F79
:100CF0006C204E6F74205265616479210D0A0000EA
:100D00004552524F523A205B4F534D616C6C6F63AA
:100D10005D3A204661696C20546F204D616C6C6FA8
:100D200063210D0A0000000070B500F081F9002574
:100D30000E48C0680D498968461A0C48046909E0E4
:100D4000206800F0004020B1206820F0004008300A
:100D500005446468002CF3D100F06CF94FF47A700C
:100D60006843B0FBF6F080B270BD0000A000002028
:100D70002DE9F05F05460F4690469946DDE90ABA2F
:100D8000C5F804B0C5F808A0EF60C5F81080C5F834
:100D900014900021A961E9610020E862286368637A
:100DA000A863002604E00020696841F82600761C4C
:100DB0005645F8D3D5E9010100EB810424F007047E
:100DC0004FF08071201F04460160201F0446E9682F
:100DD00001606FF00101201F044601604FF01231E5
:100DE000201F044601604FF00331201F04460160BC
:100DF0004FF00231201F044601604910201F0446B5
:100E000001600021201F04460160C91F201F044605
:100E100001604FF01131201F044601604FF0103186
:100E2000201F044601604FF00931201F0446016075
:100E30004FF00831201F044601604FF00731201F9A
:100E4000044601604FF00631201F044601604FF058
:100E50000531201F044601604FF00431201F044675
:100E600001602C60284600F0CBF905F144000C9994
:100E700000F0A0F928460D9900F0ECF8284600F0A3
:100E80003FF90020BDE8F09F1FB51E48006840F400
:100E900000701C490860002040221B4BCDE9012056
:100EA000009303901F2319A21B491C48FFF760FF02
:100EB0001B4800684FF47A71B0FBF1F4601EB0F18A
:100EC000807F00D30FE0601E4FF0E02148610F21CA
:100ED0004FF0FF3000F0A8FB00204FF0E0218861C8
:100EE0000720086100BF0021481E00F09DFB012182
:100EF000881F00F099FBFF216FF0010000F094FBC8
:100F000003DF1FBD14ED00E0E014002049646C65B0
:100F10005461736B0000000099090008E01500207F
:100F2000C400002010B50446202C03D307A000F015
:100F30006BFB10BDC4F11F040120A0400E490968DD
:100F400081430D48016000BFF3E700004552524F56
:100F5000523A205B4F535F4269744D617053657420
:100F60005D20496C6C6567616C20417267756D65C9
:100F70006E74210D0A000000B800002010B506486C
:100F8000006820B905A000F03FFB00BFFEE7024863
:100F90000068B0FA80F010BDB80000204552524FF2
:100FA000523A205B4F535F4269744D6170476574DC
:100FB000486967686573745D204E6F20526561648F
:100FC00079205461736B210D0A0000000020014953
:100FD00008607047B800002010B50446202C03D3E9
:100FE00007A000F011FB10BDC4F11F040120A040B8
:100FF0000E49096808430D49086000BFF3E7000087
:101000004552524F523A205B4F535F4269744D61D3
:10101000705365745D20496C6C6567616C2041722A
:1010200067756D656E74210D0A000000B800002020
:1010300072B6704762B6704703480078002801DD39
:10104000012070470020FCE79C0000200021016087
:101050004160704770B506460D461EB90DA000F000
:10106000D3FA70BD05B9FCE706F1580403202070DF
:101070002846FFF7EDFD6060606820B90FA000F022
:10108000C3FA00BFFEE7A5600020E0602061606158
:1010900000BFE6E74552524F523A5B4F535F51490A
:1010A0006E69745D20496C6C6567616C2061726764
:1010B000756D656E74210D0A000000004552524F97
:1010C000523A5B4F535F51496E69745D204D616CBC
:1010D0006C6F63204661696C6564210D0A00000035
:1010E000002008E00021054A42F8301002EBC0025F
:1010F0005160411CC8B22028F4DB7047E066002034
:1011000070B5044604B970BD66690A4800EBC605AF
:101110000020E062286818B9002020632C6003E0FA
:10112000686820636868C4626C603046FFF754FFEB
:1011300000BFE8E7E066002070B5044604B970BD62
:101140006669124800EBC605206B38B9E06A286072
:10115000E06A88B10020E16A08630DE0E06A28B91E
:10116000206B68600020216BC86205E0D4E90B01A8
:10117000C862D4E90B1008630020E062206328688D
:1011800010B93046FFF7CEFE00BFD8E7E06600207A
:1011900000B5012005490870FFF74EFF28B9044843
:1011A000006840F080500249086000BD9D000020AA
:1011B00004ED00E070B504460D461CB906A000F031
:1011C00023FA70BD01202070201DFFF73FFF002093
:1011D000E060256100BFF4E74552524F523A5B4F41
:1011E000535F53656D496E69745D20496C6C65672A
:1011F000616C20617267756D656E74210D0A000067
:10120000014601B97047054800E0806A826A002AF9
:10121000FBD181628A6200BFF4E7000060660020B3
:101220000020014988627047606600200020024962
:101230000860486070470000BC0000202DE9F047BE
:101240000446174698460CB9BDE8F0870022D4E959
:10125000060150405140084303D12046FFF750FF9C
:10126000F2E700BF2D48006840B9C4E906780020C5
:101270006063A063294804604460E5E72748D0F82C
:1012800000904FF0000A3D46464637E0D9E9061087
:10129000491BB0412AD3D9F8380098B9C4E9065699
:1012A0000020A063C4F83490D9E90610491B60EB14
:1012B0000600C9E90610C9F8384018480460C0F8AB
:1012C000049012E0D9F838A0C4E90656C4F838A052
:1012D000C4F83490D9E90610491B60EB0600C9E94F
:1012E0000610C9F83840CAF83440ADE7D9E906120B
:1012F0006D1A66EB0206CA46D9F83490B9F1000FB0
:10130000C4D1C4E90656C4F838A000206063CAF806
:1013100034400248446000BF96E70000BC00002053
:1013200070B504461CB91AA000F06EF970BDA66B2A
:10133000656BBEB935B90020A06360631E490860C3
:10134000486023E00020A863D5E90630D4E90612FE
:1013500059185041C5E906100020A0636063164883
:10136000056013E075634DB1AE63D5E90630D4E98D
:1013700006219A184841C5E9062001E00E4846605A
:101380000020A06360630021A161E16100BFCDE79F
:101390005761726E696E673A2054727920746F20BB
:1013A00072656D6F76652061204E554C4C205461FE
:1013B000736B210D0A000000BC00002010B5002452
:1013C0000E48046804B910BDD4E90620521E60F12D
:1013D0000000C4E9062007E02046FFF7A1FF2046F1
:1013E000FFF78EFE0548046834B10023D4E90610E7
:1013F000594058400143EFD000BFE4E7BC00002053
:1014000010B5FFF715FEFFF7B9FD0446034850F885
:10141000340003490860FFF70DFE10BDE0660020B0
:101420009800002070B504460D4616462848005D19
:101430004006000E2649085524B1012C0CD0022C80
:1014400020D114E00121234800F0F5FD2049095D79
:1014500008431F49085516E04FF400511E4800F09C
:10146000EAFD1B49095D0843194908550BE04FF493
:101470008041194800F0DFFD1549095D0843144912
:10148000085500E000BF00BF1148005D1349095D29
:1014900088420AD11248005D012806D106B1B04742
:1014A00000200F490855012070BD0948005D0B4917
:1014B000095DC943C9B2884207D10948005D20B916
:1014C00005B1A8470120064908550020ECE70000B7
:1014D000830000200008014000200140800000201F
:1014E0008600002010B5FFF783FBFFF767FFFFF7CB
:1014F0004FFEFFF78BFB10BD10B51048006840F49D
:1015000070000E4908600E48006840F001000C4968
:10151000086000204860C862084600680949084021
:10152000074908604FF41F0088600846006820F4EF
:101530008020086001F000F910BD000088ED00E097
:1015400000100240FFFFF6FE10B50121094801F02E
:10155000BEF9012803D10121064801F0B5F906487A
:10156000D0E90020521C40F100000349C1E90020ED
:1015700010BD0000000400409000002011E0002297
:1015800011461046FFF74EFF002211460120FFF7DB
:1015900049FF002211460220FFF744FF0A20FFF70F
:1015A000BDFAECE708B500200090FFF721FB1149D8
:1015B000114801F073FA68B10E490F4801F061FA61
:1015C0000D4801F0E3F9C0B20090012269460B48D2
:1015D000FFF785F90A49084801F060FA012806D1A9
:1015E0000749054801F04DFA034801F0CFF9FFF72C
:1015F0000DFB08BD0503050000380140D010002098
:101600000005030000BFFEE70FB4054B10B503A9AA
:10161000044A029800F0F2F810BC5DF814FB0000D8
:10162000451F0008C800002010B5002804DB0A0789
:10163000130E054A135406E00A07140E034A00F07D
:101640000F031B1FD45410BD00E400E018ED00E0B0
:1016500002E008C8121F08C1002AFAD1704770477B
:10166000002001E001C1121F002AFBD17047C1B266
:1016700081F31188704700002DE9FF5F82B00021DF
:10168000DDE90430020DDDF840B0034318D044F624
:101690001050A2F2FF3242431514119801281FD0B6
:1016A000A5EB0B00401C5FEA000A4FF000064E4F0E
:1016B000DFF83891B046504615D5CAF1000413E062
:1016C000119801244AA3012801D16FEA0B01029865
:1016D000119AC0E90031C0E9024206B0BDE8F09FAE
:1016E000CBF10000DFE704460021404A491842EBF5
:1016F0000450CDE9001012E0E00707D032463B4627
:1017000040464946FEF7C2FE8046894632463B4681
:1017100010461946FEF7BAFE06460F466410002C26
:10172000EAD1DDE90401DDE90023BAF1000F06DAB0
:10173000FEF7ACFE42464B46FEF7A8FE05E0FEF77C
:1017400017FF42464B46FEF713FF04460E460022A3
:10175000284BFEF795FF03D84FF0FF30014607E016
:101760000022254B20463146FEF724FDFEF76FFF91
:10177000102409E0002C0ADB0A220023FEF7D7FD23
:10178000039B30321A55641E50EA0102F2D1641CE8
:10179000039AC4F111031444119A012A03D00122BF
:1017A00008430DD10AE0084304D000204FF0110B8C
:1017B000119072E7A3EB0B056D1E0DE05B4504DD98
:1017C0004FF0000205F1010504E003DA4FF00002DA
:1017D000A5F10105002AECD002981199C0E9023167
:1017E000C0E9004579E70000000014400000F03F28
:1017F000300000000000F0430000E03F2DE9FF4F03
:1018000095B09B468946064600250FE2252877D1EC
:1018100000242746F84A0121059400E0044316F805
:10182000013F203B01FA03F01042F7D130782A281B
:1018300011D06FF02F033078A0F13002092A16D8AA
:10184000059A44F0020402EB820203EB42021044C8
:10185000761C0590EFE759F8042B0592002A03DA6D
:10186000504244F40054059044F00204761C307851
:101870002E2816D116F8010F44F004042A280DD0A2
:101880006FF02F023078A0F13003092B09D807EB55
:10189000870302EB4303C718761CF3E759F8047B70
:1018A000761C30786C280FD006DC4C2817D06828BE
:1018B0000DD06A2814D104E0742810D07A280FD1F2
:1018C0000DE044F400140AE044F4801401E044F410
:1018D00040147278824202D104F58014761C761C82
:1018E000307866280BD013DC582877D009DC002824
:1018F00075D04528F6D04628F4D047281AD19DE166
:1019000018E0632835D0642879D0652812D195E194
:10191000702873D008DC6728F1D069286FD06E2852
:101920000DD06F2806D1B5E073282CD0752875D05E
:10193000782874D05A46179990476D1C75E1C4F306
:101940000250022809D003280DD0D9F8001004282D
:101950000DD00D6009F1040967E1D9F80010EA170C
:10196000C1E90052F6E7D9F800100D80F2E70D70DA
:10197000F0E719F8041B8DF8001000208DF8010025
:10198000EA46012003E059F804AB4FF0FF3061074D
:101990004FF0000102D40DE008F101018846B94280
:1019A0000FDA8045F8DB1AF808100029F4D108E0B6
:1019B00008F1010188468142FADB1AF80810002973
:1019C000F6D105985B46A0EB080721463846179AE2
:1019D00000F094FA284400EB080507E04DE029E107
:1019E0000DE01AF8010B5A4617999047B8F1010813
:1019F000F7D25B4621463846179A13E142E00A22A5
:101A00000092C4F302524FF0000A022A08D059F89B
:101A100004CB032A4FEAEC710AD00DE029E02AE05A
:101A200009F1070121F00702F2E802C1914609E03D
:101A30000FFA8CFC4FEAEC71042A03D14FFA8CFCAC
:101A40004FEAEC71002907DA0A460021DCF1000CAC
:101A500061EB02012D2202E0220504D52B228DF834
:101A60000420012203E0E20701D02022F7E790469C
:101A700059E00A2102E010220DE010214FF0000A87
:101A800000910BE010224FF0000A44F004040827F4
:101A9000009203E008224FF0000A0092C4F30252C1
:101AA000022A05D059F804CB0021032A08D009E006
:101AB00009F1070121F00702F2E802C1914605E0B1
:101AC0001FFA8CFC042A01D10CF0FF0C4FF0000827
:101AD000220728D5702806D0009B83F0100353EA14
:101AE0000A0305D00EE040228DF80420012208E010
:101AF0005CEA010206D030228DF804208DF8050042
:101B000002229046009B83F0080353EA0A030AD19D
:101B10005CEA010201D1620705D530228DF804206C
:101B20004FF001087F1E582804D034A003900EA85F
:101B300002900DE036A0F9E753466046009AFEF7A2
:101B4000F6FB84460398825C0298401E0290027065
:101B50005CEA0100F0D1029806A9081A00F1200AF7
:101B6000600702D524F4803400E00127574502DDE8
:101B7000A7EB0A0000E0002000EB0A0100900598A6
:101B80004144401A0590E00306D45B462146179A6B
:101B9000059800F0B3F90544002706E001A85A466D
:101BA000C05D179990476D1C7F1C4745F6DBE0032D
:101BB0000CD55B462146179A059800F09FF905441D
:101BC00004E030205A46179990476D1C0099481E32
:101BD00000900029F5DC08E0029802995A46007846
:101BE000491C0291179990476D1CBAF10001AAF1A6
:101BF000010AF1DC65E100000928010030313233CF
:101C00003435363738396162636465660000000038
:101C10003031323334353637383941424344454622
:101C20000000000000F058F90544761C30780028C8
:101C30007FF4ECAD19B02846BDE8F08F620700D400
:101C4000062709F1070222F0070CFCE80223E1460F
:101C500003F000485FEA080C02D00FF2702C0DE090
:101C60005FEA045C02D50FF2682C07E05FEAC47CEF
:101C700002D00FF2602C01E0AFF2700C4FF0FF3891
:101C800023F00043CDF850C065280CD006DC452871
:101C900009D046281DD047283DD13DE0662818D000
:101CA00067287ED138E00021112F01DB112000E0F0
:101CB000781CCDE9000106A90EA8FFF7DDFCDDE9DF
:101CC0000F010E9A03910021009207F1010A04917D
:101CD0004DE04FF000400097CDE9011006A90EA895
:101CE000FFF7CAFCDDE90F0203920E9B1199002257
:101CF000DDF80CA00093049211B9791C00EB010AE5
:101D0000B7EB0A0004D4C0F1FF3007F1010A0490D8
:101D1000AAEB0700019044E0012F00DA012700211F
:101D2000112F01DD112000E03846CDE9000106A9A0
:101D30000EA8FFF7A1FCDDE90F010E9A0391002127
:101D400004910092BA4621070CD40399514500DA58
:101D50008A46BAF1010F05DD009AAAF10101515C32
:101D6000302908D0B84202DA10F1040F06DA012156
:101D7000CDE9011015E0AAF10101E9E7002805DC31
:101D8000049901440491AAEB000102E0411C514571
:101D900000DD8A460499401A401C01904FF0004033
:101DA0000290200704D40198504501DBCDF804804F
:101DB00000208DF84F0002980DF14F07B0F1004F51
:101DC00025D02B200E9002984FF0020800280CDA44
:101DD000404202902D200E9007E00A210298FEF763
:101DE00090FA3031029007F8011DB8F10001A8F116
:101DF0000108F2DC02980028EFD1791E0E980870D5
:101E0000307800F0200040F0450007F8020D12A8DD
:101E1000C01B00F107081498007800B1012000EB06
:101E20000A01019801EBE07105984144401A401EF7
:101E30000590E00306D45B462146179A059800F00A
:101E40005DF805441498007818B15A4617999047E0
:101E50006D1CE00324D55B462146179A059800F0D7
:101E60004DF805441CE00498002807DBDDE9030178
:101E7000884203DD0098405C179901E017993020F3
:101E80005A469047049805F10105401C04900198BA
:101E9000401E019004D12E205A46179990476D1C80
:101EA000BAF10001AAF1010ADDDC05E017F8010B27
:101EB0005A46179990476D1CB8F10001A8F1010826
:101EC000F4DC5B462146179A0598ABE62D0000002E
:101ED0002B000000200000002DE9F0410446002501
:101EE0001E461746880404D405E039462020B04732
:101EF0006D1C641EF9D52846BDE8F0812DE9F0413E
:101F0000044600251E469046C80301D5302700E050
:101F10002027880404D505E041463846B0476D1CAB
:101F2000641EF9D52846BDE8F0810000044A116816
:101F300021F0070141EA0002014B1A6070470000DE
:101F40000020024070B504460D46E1B2054800F09D
:101F500022FD00BF0721034800F077FD0028F9D0DB
:101F6000204670BD003801404161704701617047F3
:101F70000AB1016100E041617047F0B504461646C0
:101F80000025002201F00F0501F0100747B1042ED3
:101F900005D145F00305E76B1F43E76300E03543D8
:101FA00000201EE0012787401F40C7B122684FEA8A
:101FB000800C0F2707FA0CF7BA43870005FA07F7DA
:101FC0003A43282904D1012787401F40676105E073
:101FD000482903D1012787401F4027612260471C01
:101FE000B8B20828DED3082022E0012787401F402E
:101FF000E7B16268A0F108074FEA870C0F2707FADC
:102000000CF7BA43A0F10807BF0005FA07F73A43F7
:10201000282904D1012787401F40676105E048292E
:1020200003D1012787401F4027616260471CB8B277
:102030001028DAD3F0BD02469068084008B10120AC
:1020400070470020FCE70246D068084008B1012034
:1020500070470020FCE700007FB5FEF7B7FCFEF7F5
:10206000D9FCFEF79BFC20A0FFF7CEFA002433E05A
:10207000254800EB4410C069234901EB44118969EC
:10208000214A02EB441252691F4B03EB44131B69B4
:102090001D4E06EB4416CDE90032CDE90210F3687F
:1020A000194E06EB4416B268174E06EB44167168DB
:1020B000154E06EB44163068FEF75AFE05464DB144
:1020C000114800EB44102A46816810A0FFF79CFAE3
:1020D00000BFFEE7601CC4B2042CC9D3FEF7D4FED7
:1020E000002004B070BD0000496E697420537973FC
:1020F00074656D20686173206265656E2066696E27
:1021000069736865640D0A00000000204661696C0F
:1021100020746F2063726561746520257320282503
:1021200064290D0A000000002DE9F04103460D4628
:10213000164600240027A0462A48006800F4E06004
:10214000B0F5E06F03D100BF4FF0040830E0254840
:10215000006800F4E060B0F5C06F03D101274FF0D4
:10216000030825E01F48006800F4E060B0F5A06FA8
:1021700002D10227B8461BE01A48006800F4E0606C
:10218000B0F5806F03D103274FF0010810E0154828
:10219000006800F4E060B0F5407F03D104274FF001
:1021A000000805E04FF4A06000F020F80227B846D0
:1021B000C7F1040005FA00F4C8F104010F20C8407B
:1021C0003040044324010848C45403F01F01012097
:1021D00088405911890001F1E021C1F80001BDE8F2
:1021E000F08100000CED00E000E400E00249014352
:1021F000024A1160704700000000FA050CED00E093
:10220000044A516821F0F00141EA0002014B5A6092
:102210007047000000100240044A516821F4E06158
:1022200041EA0002014B5A60704700000010024072
:10223000044A516821F4605141EA0002014B5A609E
:1022400070470000001002402DE9F04F8CB00746A7
:1022500000200A904AA090E8004CC068CDE905BE75
:10226000CDF810A007900FF21C1ADAE9000ACDE9A8
:10227000020A0FF2101ADAE9000ACDE9000A44480E
:102280004068C0F381000B900B9820B1012804D066
:1022900002283FD103E03F4A3EE03E4A3CE03C4852
:1022A000406800F4803CBCF5803F12D13848C06AD9
:1022B00000F08048B8F1000F01D1364C00E0364CF8
:1022C0003348406800F40039B9F5003F02D1334C7F
:1022D00000E0324C2E484068C0F383412C484068EF
:1022E00000F0006008B141F010012948406800F09A
:1022F000804008B141F020010F2901D2891C06E07D
:102300000F2903D33E2901D8491C00E03F2104FBDB
:1023100001F201E01F4A00BF00BF1D484068C0F342
:10232000031504A8465D22FA06F319484068C0F375
:10233000022502A8465D23FA06F009901448406879
:10234000C0F3C2251DF8056023FA06F0089037B1E6
:10235000012F06D0022F06D0032F0AD106E00A92E1
:1023600008E00A9306E009980A9003E008980A90AA
:1023700000E000BF00BF0A980CB0BDE8F08F00007D
:102380000000000000000000010203040607080925
:102390000010024000127A00006CDC0200093D00CF
:1023A00000B51148006840F001000F4908600020A6
:1023B00000F042F80C4840680C4908400A4948605F
:1023C000084600680A49084007490860084600684E
:1023D00020F4802008604FF41F0088600846C06A1F
:1023E00020F0C040C86200BD001002400C00002078
:1023F000FFFFF6FE0146074A02EB9110006801F06C
:102400001F0301229A40104008B1012070470020AC
:10241000FCE7000000100240064A02EB9011096838
:1024200000F01F0301229A401143024B03EB90126C
:102430001160704700100240F0B5064600240027E6
:102440000025B6F5006F1FD005DC86B3102E0BD02B
:10245000182E72D160E0B6F5106F4BD0A6F5405043
:102460001038002869D133E004E01120FFF7C2FFE3
:102470000546641C15B9B4F5006FF6D11120FFF7BD
:10248000B9FF00B1012759E005E040F60100FFF770
:10249000B1FF0546641C1DB96FF07C408442F4D145
:1024A00040F60100FFF7A6FF00B1012746E0FFE775
:1024B00004E00120FFF79EFF0546641C15B9B4F542
:1024C000A06FF6D10120FFF795FF00B1012735E09D
:1024D00005E043F21100FFF78DFF0546641C15B9B6
:1024E00018488442F5D143F21100FFF783FF00B191
:1024F000012723E005E040F60110FFF77BFF0546CA
:10250000641C15B90F488442F5D140F60110FFF75D
:1025100071FF00B1012711E004E01920FFF76AFF05
:102520000546641C15B907488442F6D11920FFF707
:1025300061FF00B1012701E0FFE700BF00BF38469F
:10254000F0BD0000FFFF0F00064A02EB9011096882
:1025500000F01F0301229A401143024B03EB90123B
:102560001160704700100240064A02EB90110968A2
:1025700000F01F0301229A409143024B03EB90129B
:102580001160704700100240064A02EB9011096882
:1025900000F01F0301229A401143024B03EB9012FB
:1025A000116070470010024002460020044B58683A
:1025B000044B184042EA01031843014B586070472E
:1025C00000100240FFFFC2B701460020034AD06A54
:1025D00020F080400843D0627047000000100240A5
:1025E00001460020054A506820F40030012901D13D
:1025F00040F40030014A5060704700000010024073
:10260000044A516821F0030141EA0002014B5A607B
:1026100070470000001002400248406800F00C00C3
:102620007047000000100240002000213E4A12685E
:1026300042F480323C4B1A6000BF401C3A4A126898
:1026400002F4003111B9B0F5006FF6D1364A1268C4
:1026500002F400320AB900BFFEE7334AD26942F001
:102660008052314BDA61314A126842F440422F4BBA
:102670001A602D4A52682C4B5A601A4652685A60AA
:102680001A46526842F480625A601A46526822F42E
:1026900040325A601A46526842F440325A601A4632
:1026A0005268234B1A40204B5A601A465268214BFD
:1026B0001A431D4B5A601A46126842F080721A6023
:1026C00000BF194A126802F00072002AF9D0174AB6
:1026D000126842F48032154B1A6000BF134A5268E8
:1026E00002F48032002AF9D0104A126842F4003213
:1026F0000E4B1A6000BF0D4A526802F40032002AE5
:10270000F9D0094A526822F00302074B5A601A4670
:10271000526842F002025A6000BF034A526802F057
:102720000802002AF9D070470010024000700040F3
:10273000FFFFC3B70000340810B5FFF775FF10BDE9
:1027400010B504463349601A8C4244D00CDCB4F115
:10275000804F1CD03048204410B3B0F5806F28D093
:10276000B0F5006F52D12DE0B0F5806F3CD0B0F5E0
:102770008E3F03D0B0F5923F48D13EE040F20B309F
:10278000FFF702FF40F20B30FFF7EEFE3FE04FF4A1
:102790008060FFF7F9FE4FF48060FFF7E5FE36E05A
:1027A00040F20140FFF7F0FE40F20140FFF7DCFE8F
:1027B0002DE040F20240FFF7E7FE40F20240FFF753
:1027C000D3FE24E040F20340FFF7DEFE40F2034078
:1027D000FFF7CAFE1BE040F20440FFF7D5FE40F2CF
:1027E0000440FFF7C1FE12E040F20540FFF7CCFEC7
:1027F00040F20540FFF7B8FE09E040F20D30FFF768
:10280000C3FE40F20D30FFF7AFFE00E000BF00BF97
:1028100010BD00000010004000FCFFBF016841F047
:1028200001010160704700000A8882621D4A9042DF
:102830000ED0B0F1804F0BD01B4A904208D01B4AFB
:10284000904205D01A4A904202D01A4A90420BD1C7
:10285000026822F07002026002684B881A4302602C
:1028600002688B881A4302608A68C262124A9042E8
:102870000AD0124A904207D0026822F440720260E5
:102880000268CB881A430260064A904202D0094A85
:10289000904201D10A7B0263426942F00102426127
:1028A00070470000002C0140000400400008004078
:1028B000000C0040003401400010004000140040B3
:1028C000C2680A43C2607047CA4302617047024649
:1028D000D06800EA01031069084010B10BB1012073
:1028E00070470020FCE700210180418081804FF685
:1028F000FF7181600021C180017370472DE9F047AD
:1029000004460D460027B846B94600261D49601A00
:102910008C421CD006DC1C48204470B1B0F5806F9E
:102920001FD10FE0B0F5806F16D0B0F56C4F18D105
:102930000320FFF789FC074614E00220FFF784FC20
:1029400007460FE00220FFF77FFC07460AE002205F
:10295000FFF77AFC074605E00220FFF775FC074603
:1029600000E000BF00BF07EB5500B0FBF5F64FF6E7
:10297000F07006EA000806F00F0948EA0900A060B6
:10298000BDE8F087004C004000BCFFBF014648682E
:10299000C0F308007047C1F30802426070470000AE
:1029A00010B504462049601A8C4228D006DC1F4826
:1029B000204490B1B0F5806F33D117E0B0F5806F4F
:1029C00026D0B0F56C4F2CD140F20E30FFF7DCFD75
:1029D00040F20E30FFF7C8FD24E040F21140FFF74F
:1029E000D3FD40F21140FFF7BFFD1BE040F2124063
:1029F000FFF7CAFD40F21240FFF7B6FD12E040F2C9
:102A00001340FFF7C1FD40F21340FFF7ADFD09E0B1
:102A100040F21440FFF7B8FD40F21440FFF7A4FD68
:102A200000E000BF00BF10BD004C004000BCFFBF75
:102A30000A460021416921F080011143416170473C
:102A4000C16841F40051C160704710B5024602EB05
:102A50009110006801F01F040123A340184008B141
:102A6000012010BD0020FCE710B500EB91121268A8
:102A700001F01F040123A3401A4300EB91131A60D5
:102A800010BD10B500EB91521268C1F3044401234C
:102A9000A3409A4300EB91531A6010BD70B50246F3
:102AA00000230024C1F38910105801F01F060125EE
:102AB000B54000EA050302EB91500068C1F30446FB
:102AC0000125B54000EA050414B10BB1012070BD29
:102AD0000020FCE7C26822F4C062C260C2680A43F8
:102AE000C26070470A460021C16821F00401114309
:102AF000C1607047026922F44052026102690A43D0
:102B0000026170470A460021C16821F008011143A3
:102B1000C1607047C26822F48052C260C2680A4332
:102B2000C2607047546573745461736B3100000068
:102B30004C4544315461736B000000004C454432F5
:102B40005461736B000000004650555461736B0074
:102B5000702B000800000020CC0000005016000878
:102B60003C2C0008CC000020146F00006016000808
:102B7000D00200205D0A0008302B00080100000090
:102B8000D0000020800000000000000000000000D5
:102B900050050020890A00083C2B000802000000B4
:102BA0005003002080000000000000000000000032
:102BB000D007002029090008482B00080300000066
:102BC000D005002080000000000000000000000090
:102BD000501000207D150008242B00080300000081
:102BE00050080020000200000500000080000000E6
:102BF00000000000000000000000000000000000D5
:102C000000000000000000000000000000000000C4
:102C10009D0B0008290D00080000000000000000C6
:102C200000000000000000000000000000000000A4
:0C2C300000000000000E2707000000005C
:0400000508000131BD
:00000001FF
