:020000040800F2
:10000000805D00209101000861050008710400086E
:100010005D050008050200084B15000800000000FF
:100020000000000000000000000000004501000882
:1000300011030008000000006501000849110008D4
:10004000AB010008AB010008AB010008AB010008E0
:10005000AB010008AB010008AB010008AB010008D0
:10006000AB010008AB010008AB010008AB010008C0
:10007000AB010008AB010008AB010008AB010008B0
:10008000AB010008AB010008AB010008AB010008A0
:10009000AB010008AB010008AB010008AB01000890
:1000A000AB010008AB010008AB010008AB01000880
:1000B000BD110008AB010008AB010008AB0100084E
:1000C000AB010008AB010008AB010008AB01000860
:1000D000AB010008B1120008AB010008AB01000839
:1000E000AB010008AB010008AB010008AB01000840
:1000F000AB010008AB010008AB010008AB01000830
:10010000AB010008AB010008F9110008AB010008C1
:10011000AB010008AB010008AB010008AB0100080F
:10012000AB010008AB010008AB010008AB010008FF
:10013000DFF80CD000F054F80048004779170008A9
:10014000805D002071B600F0D9FE054C2568D5F819
:1001500000D0BDE8F00F5DF804EB61B6704700BF5A
:100160004800002071B600B52DE9F00F074C256856
:10017000C5F800D000F0C2FE044C2568D5F800D0C8
:10018000BDE8F00F5DF804EB61B670474800002051
:100190000648804706480047FEE7FEE7FEE7FEE721
:1001A000FEE7FEE7FEE7FEE7FEE7FEE75D1100087B
:1001B0003101000830B50B46014600202022012401
:1001C00009E021FA02F59D4205D303FA02F5491B25
:1001D00004FA02F52844151EA2F10102F1DC30BD3B
:1001E000064C074D06E0E06840F0010394E8070084
:1001F00098471034AC42F6D3FFF79EFF541800081E
:100200007418000800BFFEE710B586B0044601214F
:10021000880300F08DFE0121042000F089FE4FF4D8
:100220000070ADF8140018208DF8170003208DF829
:10023000160005A9224800F090F84FF48060ADF850
:10024000140004208DF8170005A91D4800F085F85A
:1002500001A801F06EF901940020ADF80800ADF896
:100260000A00ADF80C000C20ADF80E000020ADF82F
:10027000100001A9134801F0E7F825208DF80000CF
:1002800001208DF801008DF802008DF8030068460A
:1002900000F074F9012240F225510A4801F0AFF84C
:1002A000012240F22771074801F0A9F80121054811
:1002B00001F062F800200449087006B010BD00008B
:1002C00000080140003801404600002030B50346D8
:1002D000002016E0B3F900509C68645D0C541C8843
:1002E000641C24B21C80B3F90040B3F90450AC4242
:1002F00001DB00241C80441C20B2DC88641E24B274
:10030000DC80B3F90640002C01DD9042E2DB30BD19
:10031000704770B50346002016E00C5CB3F902602C
:100320009D68AC555C88641C24B25C80B3F90240C3
:10033000B3F90450AC4201DB00245C80441C20B2C1
:10034000DC88641C24B2DC80B3F90640B3F90450A5
:10035000AC4201DA9042E0DB70BD2DE9F04102468B
:1003600000250026002000230024002791F803C068
:100370000CF00F0591F803C00CF0100CBCF1000F4D
:1003800003D091F802C04CEA050591F800C0BCF119
:10039000000F31D0146800202BE04FF0010C0CFA54
:1003A00000F3B1F800C00CEA03069E4220D183009E
:1003B0004FF00F0C0CFA03F7BC4305FA03FC4CEAB0
:1003C000040491F803C0BCF1280F06D14FF0010CD2
:1003D0000CFA00FCC2F814C00AE091F803C0BCF1AA
:1003E000480F05D14FF0010C0CFA00FCC2F810C008
:1003F000401C0828D1D31460B1F800C0BCF1FF0F35
:1004000034DD546800202EE000F1080C4FF00108A4
:1004100008FA0CF3B1F800C00CEA03069E4221D1A1
:1004200083004FF00F0C0CFA03F7BC4305FA03FCF2
:100430004CEA040491F803C0BCF1280F05D100F187
:10044000080C08FA0CF8C2F8148091F803C0BCF14B
:10045000480F07D100F1080C4FF0010808FA0CF81A
:10046000C2F81080401C0828CED35460BDE8F0814B
:1004700000BFFEE700BFFEE710B500F00BF900F08B
:1004800025F910BD30B50B460024048044808280DD
:10049000C4808360002104E0002485686C544C1CF7
:1004A00021B29142F8DB30BD10B5044600F004F8EB
:1004B0002046FFF7A9FE10BD10B5002406E000207D
:1004C0000949085509490855601C04B2642CF6DB3B
:1004D000642205490648FFF7D5FF64220349054811
:1004E000FFF7D0FF10BD0000B80500201C0600205B
:1004F000A0050020AC05002070B50546E81D20F0E1
:1005000007021548016923E0086800F00046086802
:1005100020F00044DEB9944219D302F11000844265
:100520000ED301F108008318A01A083820F000400B
:100530001860486858604B6042F00040086003E073
:10054000086840F00040086001F1080070BD49688B
:100550000029D9D10020F9E75000002000BFFEE7B4
:100560007047000000F01F0201219140024A430938
:1005700042F823107047000080E200E070B50021CF
:1005800000230F22C47804B3154C246804F4E064FB
:10059000C4F5E064210AC1F10403CA40447804FAB6
:1005A00003F184781440214309010E4C0678A155CB
:1005B000047804F01F050124AC4005786D11AD00EE
:1005C00005F1E025C5F8004109E0047804F01F05B5
:1005D0000124AC40044D0678761145F8264070BDE4
:1005E0000CED00E000E400E080E100E010B5002840
:1005F00007DA0A07140E054A00F00F031B1FD45434
:1006000003E00A07130E024A135410BD18ED00E070
:1006100000E400E010B50446124800681249884220
:1006200003D112A000F0A0FF10BD012000F0BBFF1D
:1006300000200C490968C1E906400A48006800F03A
:10064000F9FA224600230748006800F075FB0020F5
:1006500000F0A9FF0E48006840F080500C49086087
:1006600000BFE1E748000020800700205761726E5C
:10067000696E673A2054727920746F2044656C610A
:10068000792049646C655461736B210D0A00000088
:1006900004ED00E010B500F049FA0A480A49886004
:1006A00000F5A040C8600846846844F6F8702060F1
:1006B00000206060084604610120087500F038FAE7
:1006C00010BD0000000800205000002010B500F010
:1006D0002DFA00F023FB00F081FA00F025FB00F07A
:1006E000F3F900F025FA10BD00B500F01FFA044838
:1006F0000078401C0249087000F01AFA00BD0000A2
:100700004C00002000B500F011FA0C480078401EA3
:100710000A4908700846007860B90948007801283D
:1007200008D10020064908700648006840F0805053
:100730000449086000F0FCF900BD00004C000020F6
:100740004D00002004ED00E070B5054600F0EEF924
:1007500015B1B5F5A04F06D314A000F005FF00F0C9
:10076000E7F9002070BD1B48007D30B91AA000F0E9
:10077000FBFE00F0DDF90020F4E72846FFF7BCFEA1
:1007800004463CB113488068A04203D21148C068B7
:10079000A04206D818A000F0E7FE00F0C9F900203A
:1007A000E0E700F0C5F92046DCE700004552524F73
:1007B000523A205B4F534D616C6C6F635D20496C06
:1007C0006C6567616C20417267756D656E74210D93
:1007D0000A000000500000204552524F523A204D6E
:1007E000656D6F7279506F6F6C204E6F742052651B
:1007F000616479210D0A00004552524F523A205B44
:100800004F534D616C6C6F635D3A204661696C209B
:10081000546F204D616C6C6F63210D0A0000000065
:1008200070B500F083F900250E48C0680D4989684D
:10083000461A0C48046909E0206800F0004020B125
:10084000206820F00040083005446468002CF3D193
:1008500000F06EF94FF47A706843B0FBF6F080B2A6
:1008600070BD0000500000202DE9F05F05460F46E6
:1008700090469946DDE90ABAC5F804B0C5F808A063
:10088000EF60C5F81080C5F814900021A961E961F6
:100890000020E86228636863A863002604E0002063
:1008A000696841F82600761C5645F8D3D5E9010160
:1008B00000EB810424F007044FF08071201F0446F0
:1008C0000160201F0446E96801606FF00101201FEC
:1008D000044601604FF01231201F044601604FF0C2
:1008E0000331201F044601604FF00231201F0446EF
:1008F00001604910201F044601600021201F0446AA
:100900000160C91F201F044601604FF01131201FF4
:10091000044601604FF01031201F044601604FF083
:100920000931201F044601604FF00831201F0446A2
:1009300001604FF00731201F044601604FF006317F
:10094000201F044601604FF00531201F044601605E
:100950004FF00431201F044601602C60284600F04F
:10096000CDF905F144000C9900F0A2F928460D9943
:1009700000F0EEF8284600F041F90020BDE8F09FB5
:100980001FB51F48006840F400701D490860002032
:1009900040221C4BCDE90120009303901F231AA293
:1009A0001C491D48FFF760FF1C4800684FF47A712E
:1009B000B0FBF1F4B4F1807F00D311E024F07F406C
:1009C000401E4FF0E02148610F214FF0FF30FFF74C
:1009D0000DFE00204FF0E02188610720086100BF74
:1009E0000021481EFFF702FE0121881FFFF7FEFDD0
:1009F000FF216FF00100FFF7F9FD03DF1FBD0000CD
:100A000014ED00E08006002049646C655461736B4E
:100A10000000000075040008800700208800002006
:100A200010B50446202C03D307A000F09DFD10BD97
:100A3000C4F11F040120A0400E49096881430D48FC
:100A4000016000BFF3E700004552524F523A205B6D
:100A50004F535F4269744D61705365745D20496CFA
:100A60006C6567616C20417267756D656E74210DF0
:100A70000A0000006800002010B50648006820B990
:100A800005A000F071FD00BFFEE702480068B0FA63
:100A900080F010BD680000204552524F523A205B52
:100AA0004F535F4269744D61704765744869676868
:100AB0006573745D204E6F205265616479205461C6
:100AC000736B210D0A000000002001490860704787
:100AD0006800002010B50446202C03D307A000F0C6
:100AE00043FD10BDC4F11F040120A0400E49096858
:100AF00008430D49086000BFF3E700004552524F1C
:100B0000523A205B4F535F4269744D617053657474
:100B10005D20496C6C6567616C20417267756D651D
:100B20006E74210D0A0000006800002072B6704744
:100B300062B6704703480078002801DD0120704745
:100B40000020FCE74C00002000210160416070475C
:100B500070B506460D461EB90DA000F005FD70BD2E
:100B600005B9FCE706F15804032020702846FFF77A
:100B7000EBFD6060606820B90FA000F0F5FC00BFDD
:100B8000FEE7A5600020E0602061606100BFE6E74D
:100B90004552524F523A5B4F535F51496E69745DF3
:100BA00020496C6C6567616C20617267756D656E5C
:100BB00074210D0A000000004552524F523A5B4F1B
:100BC000535F51496E69745D204D616C6C6F632099
:100BD0004661696C6564210D0A000000002008E090
:100BE0000021054A42F8301002EBC0025160411C5E
:100BF000C8B22028F4DB70478058002070B5044646
:100C000004B970BD66690A4800EBC6050020E062C1
:100C1000286818B9002020632C6003E0686820630E
:100C20006868C4626C603046FFF754FF00BFE8E7B5
:100C30008058002070B5044604B970BD666912483A
:100C400000EBC605206B38B9E06A2860E06A88B11D
:100C50000020E16A08630DE0E06A28B9206B686053
:100C60000020216BC86205E0D4E90B01C862D4E919
:100C70000B1008630020E0622063286810B930463A
:100C8000FFF7CEFE00BFD8E78058002000B5012056
:100C900005490870FFF74EFF28B90448006840F086
:100CA00080500249086000BD4D00002004ED00E0C6
:100CB00070B504460D461CB906A000F055FC70BD89
:100CC00001202070201DFFF73FFF0020E06025611C
:100CD00000BFF4E74552524F523A5B4F535F5365A2
:100CE0006D496E69745D20496C6C6567616C20614B
:100CF0007267756D656E74210D0A0000014601B9B9
:100D00007047054800E0806A826A002AFBD1816250
:100D10008A6200BFF4E7000000580020002001496B
:100D2000886270470058002000200249086048602F
:100D3000704700006C0000202DE9F047044617467C
:100D400098460CB9BDE8F0870022D4E9060150406E
:100D50005140084303D12046FFF750FFF2E700BFA0
:100D60002D48006840B9C4E9067800206063A0639C
:100D7000294804604460E5E72748D0F800904FF028
:100D8000000A3D46464637E0D9E90610491BB04106
:100D90002AD3D9F8380098B9C4E906560020A063D0
:100DA000C4F83490D9E90610491B60EB0600C9E984
:100DB0000610C9F8384018480460C0F8049012E0E2
:100DC000D9F838A0C4E90656C4F838A0C4F834905D
:100DD000D9E90610491B60EB0600C9E90610C9F8FD
:100DE0003840CAF83440ADE7D9E906126D1A66EB0F
:100DF0000206CA46D9F83490B9F1000FC4D1C4E94B
:100E00000656C4F838A000206063CAF8344002488F
:100E1000446000BF96E700006C00002070B50446F7
:100E20001CB91AA000F0A0FB70BDA66B656BBEB923
:100E300035B90020A06360631E490860486023E064
:100E40000020A863D5E90630D4E9061259185041AC
:100E5000C5E906100020A06360631648056013E032
:100E600075634DB1AE63D5E90630D4E906219A1811
:100E70004841C5E9062001E00E4846600020A06315
:100E800060630021A161E16100BFCDE75761726E2F
:100E9000696E673A2054727920746F2072656D6FA5
:100EA00076652061204E554C4C205461736B210DAA
:100EB0000A0000006C00002010B500240E480468F1
:100EC00004B910BDD4E90620521E60F10000C4E947
:100ED000062007E02046FFF7A1FF2046FFF78EFE21
:100EE0000548046834B10023D4E90610594058403D
:100EF0000143EFD000BFE4E76C00002010B5FFF71E
:100F000015FEFFF7B9FD0446034850F834000349C5
:100F10000860FFF70DFE10BD80580020480000203B
:100F20000146C88808B9012070470020FCE700008E
:100F300029B1064A92690243044B9A6104E0034ACC
:100F400092698243014B9A61704700000010024091
:100F500030B500210022002400232D4D6D6805F0DE
:100F60000C0121B1042905D0082923D105E0294D20
:100F7000056022E0274D05601FE0254D6D6805F4F2
:100F80007012234D6D6805F48034022505EB924202
:100F90001CB9214D554305600BE01D4D6D6805F4EE
:100FA00000351DB11C4D5543056002E0194D5543F8
:100FB000056002E0174D056000BF00BF144D6D686D
:100FC00005F0F0010909154D6B5C0568DD404560D1
:100FD0000F4D6D6805F4E061090A104D6B5C4568C2
:100FE000DD4085600A4D6D6805F46051C90A0B4DFE
:100FF0006B5C4568DD40C560054D6D6805F440419A
:10100000890B074D6B5CC568B5FBF3F5056130BD19
:101010000010024000127A0000093D007400002018
:101020008400002070B504460025012221460348B3
:10103000FFF74CF9C5B2284670BD0000A00500209E
:1010400010B50446E1B2054800F06FFA00BF402138
:10105000024800F09DF90028F9D010BD0038014089
:1010600010B500F001F810BD0CB500200190009003
:101070003348006840F480303149086000BF304890
:10108000006800F4003000900198401C0190009826
:1010900018B90198B0F5A06FF1D12948006800F4A3
:1010A000003010B10120009001E000200090009875
:1010B000012843D12348006840F01000214908600E
:1010C0000846006820F0030008600846006840F009
:1010D000020008601A48406819494860084640689C
:1010E00048600846406840F48060486008464068B0
:1010F00020F47C1048600846406840F4E8104860DE
:101100000846006840F08070086000BF0C48006826
:1011100000F000700028F9D00948406820F0030072
:10112000074948600846406840F00200486000BF38
:101130000348406800F00C000828F9D10CBD0000FD
:10114000001002400020024010B5FFF7CDFAFFF773
:10115000B3FEFFF79BFDFFF7D5FA10BD10B513489E
:10116000006840F0010011490860084640681049D5
:1011700008400E494860084600680E4908400B497F
:1011800008600846006820F480200860084640682F
:1011900020F4FE0048604FF41F008860FFF760FFF6
:1011A0004FF000600449086010BD000000100240CC
:1011B0000000FFF8FFFFF6FE08ED00E010B501218A
:1011C000880700F040F8012803D10121800700F0D2
:1011D00037F807480088401C054908800846008801
:1011E000022804DB0020088001200249087010BD9D
:1011F000420000204000002010B501210D4800F001
:1012000022F8012803D101210A4800F019F80A4800
:101210000088401C00B2084908800846B0F9000068
:10122000B0F57A7F04DB00200880012003490870B4
:1012300010BD0000000C00404400002041000020D0
:10124000CA430282704730B50246002000230024C2
:10125000158A05EA0103958905EA010413B10CB169
:10126000012000E0002030BD06E004A000F07CF981
:101270004FF4FA70FFF7CEF9F7E700005461736B93
:10128000312072756E6E696E670D0A0006E004A06B
:1012900000F06AF94FF47A70FFF7BCF9F7E7000045
:1012A0005461736B322072756E6E696E670D0A0041
:1012B00008B50020009040F22551204800F075F854
:1012C00058B12520FFF74EF91C4800F029F9C0B2AB
:1012D00000909DF8000000F03BF90821174800F04D
:1012E00057F8012806D10821144800F02DF81348BA
:1012F00000F016F940F22771104800F056F8E0B1FE
:1013000040F227710D4800F028F82520FFF72AF950
:101310006846FFF787FE9DF80010084800F005F9C1
:101320000748FFF7FDFD40B1002006490870002284
:1013300040F22771014800F062F808BD0038014012
:10134000A00500204600002001F40072B2F5007FE5
:1013500000D100BFCA430280704710B500220023AD
:1013600040F66A14A14200D100BF0A120124944041
:10137000A3B2DC43048010BD21B1828942F4005243
:10138000828104E082894DF6FF731A4082817047A2
:1013900002460020B1F5007F00D100BF13880B404A
:1013A0000BB1012000E00020704770B50246002418
:1013B00000230025002040F66A16B14200D100BF8C
:1013C000C1F3421501F01F03012606FA03F3012DB4
:1013D00002D19689334006E0022D02D1168A3340AD
:1013E00001E0968A33400C12012606FA04F41688AE
:1013F000344013B10CB1012000E0002070BDF0B505
:101400000346002400260025002040F66A17B94252
:1014100000D100BF1846C1F3421401F01F06012796
:1014200007FA06F5012C01D10C3004E0022C01D1A1
:10143000103000E014301AB107682F43076002E053
:101440000768AF430760F0BD2DE9F04786B0054659
:101450000E460024A24600BFA1460027B08900B175
:1014600000BF2F462C8A4CF6FF700440F0880443DE
:101470002C82AC894EF6F3100440B08831890843C1
:10148000718908430443AC81AC8A4FF6FF400440A5
:10149000B0890443AC8201A8FFF75AFD1F48874278
:1014A00002D1DDF810A001E0DDF80CA0A88900F45D
:1014B000004040B10AEBCA0000EB0A103168490055
:1014C000B0FBF1F807E00AEBCA0000EB0A10316844
:1014D0008900B0FBF1F86420B8FBF0F004012009AA
:1014E000642101FB1089A88900F4004040B132203A
:1014F00000EBC900B0FBF1F000F00700044308E086
:10150000322000EB09106421B0FBF1F000F00F0075
:1015100004432C8106B0BDE8F0870000003801408C
:1015200001468888C0F308007047C1F30802828032
:1015300070474FF41651016000218180C180018104
:101540000C21418100218181704700BFFEE700002E
:1015500031B50024012269460248FEF7DAFEC4B222
:10156000204638BDAC0500200FB4054B10B503A9CB
:10157000044A029800F01CF810BC5DF814FB00004F
:10158000691700089C00002002E008C8121F08C16B
:10159000002AFAD170477047002001E001C1121FF4
:1015A000002AFBD17047C1B281F311887047000057
:1015B0002DE9FF4F8BB09A460F460546002606E000
:1015C00025280BD052460D9990476D1C761C287823
:1015D0000028F5D10FB03046BDE8F08F0024A046BA
:1015E0000122604900E0044315F8013F203B02FA64
:1015F00003F00842F7D128782E2817D115F8010FEB
:1016000044F004042A280ED06FF02F022878A0F1AD
:10161000300109290AD808EB880102EB410100EBEF
:1016200001086D1CF2E757F8048B6D1C28786928B7
:101630003ED006DC0028CDD063280BD0642804D12E
:1016400036E0732810D075284BD052460D9990473C
:10165000761C85E017F8040B8DF8000000208DF84B
:101660000100E946012003E057F8049B4FF0FF30EA
:1016700061074FF0000401D40AE0641C44450DDA10
:101680008442FADB19F804100029F6D106E0641C44
:101690008442FCDB19F804100029F8D1264404E048
:1016A00019F8010B52460D999047641EF8D257E085
:1016B00001CF4FF00A0B002802DA40422D2102E050
:1016C000210504D52B218DF82410012103E0E10729
:1016D00005D02021F7E70DF1200908910CE0002149
:1016E000F9E701CF4FF00A0BF9E75946FEF762FD23
:1016F00001F1300209F8012D0028F6D1ADEB090007
:1017000000F1200B600701D44FF00108D84502DD3D
:10171000A8EB0B0000E000208046002406E009A8AA
:101720005246005D0D999047641C761C08988442CF
:10173000F5DB04E0302052460D999047761CB8F155
:101740000001A8F10108F5DC05E019F8010B52468B
:101750000D999047761CBBF10001ABF1010BF4DC55
:101760006D1C34E70928010070B504460D46E0B24F
:10177000FFF766FC204670BD1FB54FF4E130FEF761
:1017800093FE20A0FFF7F0FEFEF776FE002433E084
:10179000244800EB4410C069224901EB44118969D7
:1017A000204A02EB441252691E4B03EB44131B699F
:1017B0001C4E06EB4416CDE90032CDE90210F36869
:1017C000184E06EB4416B268164E06EB44167168C6
:1017D000144E06EB44163068FFF746F805464DB147
:1017E000104800EB44102A4681680FA0FFF7BCFEAA
:1017F00000BFFEE7601CC4B2022CC9D3FFF7C0F8DB
:1018000000BFFEE7496E69742053797374656D20DB
:10181000686173206265656E2066696E69736865CC
:10182000640D0A00000000204661696C20746F207E
:1018300063726561746520257320282564290D0A6B
:10184000000000005461736B310000005461736B41
:10185000320000007418000800000020A000000002
:101860008815000814190008A0000020E05C0000A2
:1018700098150008A002002069120008441800080A
:1018800001000000A0000020800000000000000017
:1018900000000000200500208D1200084C180008F0
:1018A0000200000020030020800000000000000073
:1018B0000000000000000000000000000000000028
:1018C0000000000095060008210800080000000044
:1018D0000000000000000000000000000000000008
:1018E00000000000000000000000000001020304EE
:1018F00001020304060708090204060800A24A04BC
:1019000000000000000000000102030406070809AF
:0419100000000000D3
:0400000508000131BD
:00000001FF
