:020000040800F2
:10000000A064002091010008A9030008E70200088D
:10001000A503000805020008590E000800000000B2
:100020000000000000000000000000004501000882
:100030009D0200080000000065010008B50C0008E2
:10004000AB010008AB010008AB010008AB010008E0
:10005000AB010008AB010008AB010008AB010008D0
:10006000AB010008AB010008AB010008AB010008C0
:10007000AB010008AB010008AB010008AB010008B0
:10008000AB010008AB010008AB010008AB010008A0
:10009000AB010008AB010008AB010008AB01000890
:1000A000AB010008AB010008AB010008AB01000880
:1000B000AB010008190D0008AB010008AB010008F6
:1000C000AB010008AB010008AB010008AB01000860
:1000D000AB010008010E0008AB010008AB010008ED
:1000E000AB010008AB010008AB010008AB01000840
:1000F000AB010008AB010008AB010008AB01000830
:10010000AB010008AB010008AB010008AB0100081F
:10011000AB010008AB010008710D0008AB0100083D
:10012000AB010008AB010008AB010008AB010008FF
:10013000DFF80CD000F054F80048004765110008C3
:10014000A064002071B600F0A3FD054C2568D5F829
:1001500000D0BDE8F00F5DF804EB61B6704700BF5A
:100160005400002071B600B52DE9F00F074C25684A
:10017000C5F800D000F08CFD044C2568D5F800D0FF
:10018000BDE8F00F5DF804EB61B670475400002045
:100190000648804706480047FEE7FEE7FEE7FEE721
:1001A000FEE7FEE7FEE7FEE7FEE7FEE7C90C000814
:1001B0003101000830B50B46014600202022012401
:1001C00009E021FA02F59D4205D303FA02F5491B25
:1001D00004FA02F52844151EA2F10102F1DC30BD3B
:1001E000064C074D06E0E06840F0010394E8070084
:1001F00098471034AC42F6D3FFF79EFF3018000842
:100200005018000800BFFEE710B504460022114652
:10021000252001F00DF840F2026001F021F94FF4C1
:100220000073032218211B4800F03EFF4FF4806347
:1002300003220421174800F037FF40F20E6001F05E
:100240000FF9154801F02AFA2146134801F0D4F9B4
:100250000021114801F0CCFA00210F4801F0D8FA32
:1002600000210D4801F0B4FA04210B4801F0B8FA5E
:100270000821094801F0C4FA074801F05FFA40F28A
:100280000531054801F06EFA8021034801F04EFA6D
:1002900010BD00000008014000380140704770B5F3
:1002A0000346002016E00C5CB3F902609D68AC5573
:1002B0005C88641C24B25C80B3F90240B3F904503A
:1002C000AC4201DB00245C80441C20B2DC88641C4E
:1002D00024B2DC80B3F90640B3F90450AC4201DA31
:1002E0009042E0DB70BD00BFFEE700BFFEE710B547
:1002F00000F09CF800F0B6F810BD30B50B460024B5
:10030000048044808280C4808360002104E0002453
:1003100085686C544C1C21B29142F8DB30BD000062
:1003200010B504464FF4806203490448FFF7E5FF27
:100330002046FFF769FF10BD9405002088050020C6
:1003400070B50546E81D20F007021548016923E055
:10035000086800F00046086820F00044DEB99442C6
:1003600019D302F1100084420ED301F10800831862
:10037000A01A083820F000401860486858604B60A8
:1003800042F00040086003E0086840F00040086068
:1003900001F1080070BD49680029D9D10020F9E7B2
:1003A0005C00002000BFFEE77047000010B5044667
:1003B000124800681249884203D112A000F04EFD95
:1003C00010BD012000F07DFD00200C490968C1E945
:1003D00006400A48006800F0F7FA22460023074862
:1003E000006800F073FB002000F06BFD0E48006811
:1003F00040F080500C49086000BFE1E75400002045
:10040000980A00205761726E696E673A20547279BB
:1004100020746F2044656C61792049646C65546177
:10042000736B210D0A00000004ED00E010B500F030
:1004300047FA0A480A49886000F5A040C8600846A3
:10044000846844F6F870206000206060084604610B
:100450000120087500F036FA10BD0000200B0020C6
:100460005C00002010B500F02BFA00F021FB00F03A
:100470007FFA00F023FB00F0F1F900F023FA10BD41
:1004800000B500F01DFA04480078401C02490870CD
:1004900000F018FA00BD00005800002000B500F080
:1004A0000FFA0C480078401E0A4908700846007888
:1004B00060B909480078012808D100200649087071
:1004C0000648006840F080500449086000F0FAF9DE
:1004D00000BD0000580000205900002004ED00E09D
:1004E00070B5054600F0ECF915B1B5F5A04F06D38F
:1004F00014A000F0B3FC00F0E5F9002070BD1B482B
:10050000007D30B91AA000F0A9FC00F0DBF9002052
:10051000F4E72846FFF714FF04463CB1134880680F
:10052000A04203D21148C068A04206D818A000F02B
:1005300095FC00F0C7F90020E0E700F0C3F9204681
:10054000DCE700004552524F523A205B4F534D6159
:100550006C6C6F635D20496C6C6567616C204172E7
:1005600067756D656E74210D0A0000005C00002047
:100570004552524F523A204D656D6F7279506F6FF0
:100580006C204E6F74205265616479210D0A000061
:100590004552524F523A205B4F534D616C6C6F6322
:1005A0005D3A204661696C20546F204D616C6C6F20
:1005B00063210D0A0000000070B500F081F90025EC
:1005C0000E48C0680D498968461A0C48046909E05C
:1005D000206800F0004020B1206820F00040083082
:1005E00005446468002CF3D100F06CF94FF47A7084
:1005F0006843B0FBF6F080B270BD00005C000020E4
:100600002DE9F05F05460F4690469946DDE90ABAA6
:10061000C5F804B0C5F808A0EF60C5F81080C5F8AB
:1006200014900021A961E9610020E86228636863F1
:10063000A863002604E00020696841F82600761CC3
:100640005645F8D3D5E9010100EB810424F00704F5
:100650004FF08071201F04460160201F0446E968A6
:1006600001606FF00101201F044601604FF012315C
:10067000201F044601604FF00331201F0446016033
:100680004FF00231201F044601604910201F04462C
:1006900001600021201F04460160C91F201F04467D
:1006A00001604FF01131201F044601604FF01031FE
:1006B000201F044601604FF00931201F04460160ED
:1006C0004FF00831201F044601604FF00731201F12
:1006D000044601604FF00631201F044601604FF0D0
:1006E0000531201F044601604FF00431201F0446ED
:1006F00001602C60284600F0CBF905F144000C990C
:1007000000F0A0F928460D9900F0ECF8284600F01A
:100710003FF90020BDE8F09F1FB51E48006840F477
:1007200000701C490860002040221B4BCDE90120CD
:10073000009303901F2319A21B491C48FFF760FF79
:100740001B4800684FF47A71B0FBF1F4601EB0F101
:10075000807F00D30FE0601E4FF0E02148610F2141
:100760004FF0FF3000F08AFB00204FF0E02188615D
:100770000720086100BF0021481E00F07FFB012117
:10078000881F00F07BFBFF216FF0010000F076FB7B
:1007900003DF1FBD14ED00E09809002049646C657B
:1007A0005461736B00000000EB020008980A0020FF
:1007B0008000002010B50446202C03D307A000F0D1
:1007C0004DFB10BDC4F11F040120A0400E49096873
:1007D00081430D48016000BFF3E700004552524FCE
:1007E000523A205B4F535F4269744D617053657498
:1007F0005D20496C6C6567616C20417267756D6541
:100800006E74210D0A0000007400002010B5064827
:10081000006820B905A000F021FB00BFFEE70248F8
:100820000068B0FA80F010BD740000204552524FAD
:10083000523A205B4F535F4269744D617047657453
:10084000486967686573745D204E6F205265616406
:1008500079205461736B210D0A00000000200149CA
:10086000086070477400002010B50446202C03D3A4
:1008700007A000F0F3FA10BDC4F11F040120A0404E
:100880000E49096808430D49086000BFF3E70000FE
:100890004552524F523A205B4F535F4269744D614B
:1008A000705365745D20496C6C6567616C204172A2
:1008B00067756D656E74210D0A00000074000020DC
:1008C00072B6704762B6704703480078002801DDB1
:1008D000012070470020FCE7580000200021016043
:1008E0004160704770B506460D461EB90DA000F078
:1008F000B5FA70BD05B9FCE706F158040320207075
:100900002846FFF7EDFD6060606820B90FA000F099
:10091000A5FA00BFFEE7A5600020E06020616061ED
:1009200000BFE6E74552524F523A5B4F535F514981
:100930006E69745D20496C6C6567616C20617267DB
:10094000756D656E74210D0A000000004552524F0E
:10095000523A5B4F535F51496E69745D204D616C33
:100960006C6F63204661696C6564210D0A000000AC
:10097000002008E00021054A42F8301002EBC002D6
:100980005160411CC8B22028F4DB7047A05B0020F6
:1009900070B5044604B970BD66690A4800EBC60527
:1009A0000020E062286818B9002020632C6003E072
:1009B000686820636868C4626C603046FFF754FF63
:1009C00000BFE8E7A05B002070B5044604B970BD25
:1009D0006669124800EBC605206B38B9E06A2860EA
:1009E000E06A88B10020E16A08630DE0E06A28B996
:1009F000206B68600020216BC86205E0D4E90B0120
:100A0000C862D4E90B1008630020E0622063286804
:100A100010B93046FFF7CEFE00BFD8E7A05B00203C
:100A200000B5012005490870FFF74EFF28B90448BA
:100A3000006840F080500249086000BD5900002065
:100A400004ED00E070B504460D461CB906A000F0A8
:100A500005FA70BD01202070201DFFF73FFF002028
:100A6000E060256100BFF4E74552524F523A5B4FB8
:100A7000535F53656D496E69745D20496C6C6567A1
:100A8000616C20617267756D656E74210D0A0000DE
:100A9000014601B97047054800E0806A826A002A71
:100AA000FBD181628A6200BFF4E70000205B002076
:100AB0000020014988627047205B00200020024925
:100AC0000860486070470000780000202DE9F0477A
:100AD0000446174698460CB9BDE8F0870022D4E9D1
:100AE000060150405140084303D12046FFF750FF14
:100AF000F2E700BF2D48006840B9C4E9067800203D
:100B00006063A063294804604460E5E72748D0F8A3
:100B100000904FF0000A3D46464637E0D9E90610FE
:100B2000491BB0412AD3D9F8380098B9C4E9065610
:100B30000020A063C4F83490D9E90610491B60EB8B
:100B40000600C9E90610C9F8384018480460C0F822
:100B5000049012E0D9F838A0C4E90656C4F838A0C9
:100B6000C4F83490D9E90610491B60EB0600C9E9C6
:100B70000610C9F83840CAF83440ADE7D9E9061282
:100B80006D1A66EB0206CA46D9F83490B9F1000F27
:100B9000C4D1C4E90656C4F838A000206063CAF87E
:100BA00034400248446000BF96E70000780000200F
:100BB00070B504461CB91AA000F050F970BDA66BC0
:100BC000656BBEB935B90020A06360631E4908603B
:100BD000486023E00020A863D5E90630D4E9061276
:100BE00059185041C5E906100020A06360631648FB
:100BF000056013E075634DB1AE63D5E90630D4E905
:100C000006219A184841C5E9062001E00E484660D1
:100C10000020A06360630021A161E16100BFCDE716
:100C20005761726E696E673A2054727920746F2032
:100C300072656D6F76652061204E554C4C20546175
:100C4000736B210D0A0000007800002010B500240D
:100C50000E48046804B910BDD4E90620521E60F1A4
:100C60000000C4E9062007E02046FFF7A1FF204668
:100C7000FFF78EFE0548046834B10023D4E906105E
:100C8000594058400143EFD000BFE4E7780000200E
:100C900010B5FFF715FEFFF7B9FD0446034850F8FD
:100CA000340003490860FFF70DFE10BDA05B002073
:100CB0005400002010B5FFF7E3FBFFF7C7FFFFF775
:100CC000AFFEFFF7EBFB10BD10B51048006840F415
:100CD00070000E4908600E48006840F001000C49A1
:100CE000086000204860C86208460068094908405A
:100CF000074908604FF41F0088600846006820F428
:100D00008020086000F064FC10BD000088ED00E069
:100D100000100240FFFFF6FE10B50121104800F060
:100D20005EFC012803D101210D4800F055FC0D485F
:100D30000088401C0B49088008460088022804DB14
:100D4000002008800120084908700848D0E90030D8
:100D50005A1C40F100000549C1E9002010BD000007
:100D60000004004050000020400000204800002007
:100D700010B501210D4800F032FC012803D10121FA
:100D80000A4800F029FC0A480088401C00B20849C3
:100D900008800846B0F90000B0F57A7F04DB002037
:100DA000088001200349087010BD000000100040B9
:100DB000520000204100002006E004A000F04EF8A0
:100DC0004FF4FA70FFF7F2FAF7E700005461736B23
:100DD000312072756E6E696E670D0A0006E004A020
:100DE00000F03CF84FF47A70FFF7E0FAF7E7000004
:100DF0005461736B322072756E6E696E670D0A00F6
:100E000008B5002000901049104800F0C5FC68B1FA
:100E10000D490E4800F0B3FC0C4800F035FCC0B2A0
:100E20000090012269460A48FFF739FA0949074844
:100E300000F0B2FC012806D10649044800F09FFCEE
:100E4000024800F021FC08BD050305000038014000
:100E5000880500200005030000BFFEE70FB4054B26
:100E600010B503A9044A029800F030F810BC5DF8F0
:100E700014FB0000851000088400002010B5002835
:100E800004DB0A07130E054A135406E00A07140E82
:100E9000034A00F00F031B1FD45410BD00E400E010
:100EA00018ED00E002E008C8121F08C1002AFAD1BC
:100EB00070477047002001E001C1121F002AFBD1DA
:100EC0007047C1B281F31188704700002DE9FF4FD0
:100ED0008BB09A460F460546002606E025280BD023
:100EE00052460D9990476D1C761C28780028F5D144
:100EF0000FB03046BDE8F08F0024A04601226049C3
:100F000000E0044315F8013F203B02FA03F00842D9
:100F1000F7D128782E2817D115F8010F44F00404D2
:100F20002A280ED06FF02F022878A0F1300109296D
:100F30000AD808EB880102EB410100EB01086D1CA7
:100F4000F2E757F8048B6D1C287869283ED006DC40
:100F50000028CDD063280BD0642804D136E0732854
:100F600010D075284BD052460D999047761C85E0DD
:100F700017F8040B8DF8000000208DF80100E946F9
:100F8000012003E057F8049B4FF0FF3061074FF05A
:100F9000000401D40AE0641C44450DDA8442FADB03
:100FA00019F804100029F6D106E0641C8442FCDB29
:100FB00019F804100029F8D1264404E019F8010BAF
:100FC00052460D999047641EF8D257E001CF4FF07A
:100FD0000A0B002802DA40422D2102E0210504D547
:100FE0002B218DF82410012103E0E10705D02021F9
:100FF000F7E70DF1200908910CE00021F9E701CF96
:101000004FF00A0BF9E75946FFF7D4F801F1300227
:1010100009F8012D0028F6D1ADEB090000F1200BF5
:10102000600701D44FF00108D84502DDA8EB0B00A2
:1010300000E000208046002406E009A85246005D3A
:101040000D999047641C761C08988442F5DB04E0F7
:10105000302052460D999047761CB8F10001A8F156
:101060000108F5DC05E019F8010B52460D9990478F
:10107000761CBBF10001ABF1010BF4DC6D1C34E715
:101080000928010070B504460D46E1B2054800F09C
:1010900000FB00BF0721034800F055FB0028F9D0F2
:1010A000204670BD00380140F0B5044616460025C4
:1010B000002201F00F0501F0100747B1042E05D101
:1010C00045F00305E76B1F43E76300E0354300206D
:1010D0001EE0012787401F40C7B122684FEA800CFD
:1010E0000F2707FA0CF7BA43870005FA07F73A43C8
:1010F000282904D1012787401F40676105E048295E
:1011000003D1012787401F4027612260471CB8B2E6
:101110000828DED3082022E0012787401F40E7B1DE
:101120006268A0F108074FEA870C0F2707FA0CF74F
:10113000BA43A0F10807BF0005FA07F73A43282988
:1011400004D1012787401F40676105E0482903D18A
:10115000012787401F4027616260471CB8B21028F2
:10116000DAD3F0BD1FB54FF4E130FFF7D9F820A076
:10117000FFF774FEFFF7BBF8002433E0244800EBD0
:101180004410C069224901EB44118969204A02EBED
:10119000441252691E4B03EB44131B691C4E06EBB1
:1011A0004416CDE90032CDE90210F368184E06EB83
:1011B0004416B268164E06EB44167168144E06EBE0
:1011C00044163068FFF71CFA05464DB1104800EB95
:1011D00044102A4681680FA0FFF740FE00BFFEE7DB
:1011E000601CC4B2022CC9D3FFF796FA00BFFEE719
:1011F000496E69742053797374656D20686173203A
:101200006265656E2066696E69736865640D0A00C3
:10121000000000204661696C20746F206372656174
:10122000746520257320282564290D0A000000001C
:101230002DE9F04103460D46164600240027A0463E
:101240002A48006800F4E060B0F5E06F03D100BF09
:101250004FF0040830E02548006800F4E060B0F585
:10126000C06F03D101274FF0030825E01F48006835
:1012700000F4E060B0F5A06F02D10227B8461BE091
:101280001A48006800F4E060B0F5806F03D10327CE
:101290004FF0010810E01548006800F4E060B0F578
:1012A000407F03D104274FF0000805E04FF4A06011
:1012B00000F020F80227B846C7F1040005FA00F450
:1012C000C8F104010F20C8403040044324010848FD
:1012D000C45403F01F01012088405911890001F115
:1012E000E021C1F80001BDE8F08100000CED00E054
:1012F00000E400E002490143024A11607047000027
:101300000000FA050CED00E02DE9F04F8CB0074627
:1013100000200A904AA090E8004CC068CDE905BEC4
:10132000CDF810A007900FF21C1ADAE9000ACDE9F7
:10133000020A0FF2101ADAE9000ACDE9000A44485D
:101340004068C0F381000B900B9820B1012804D0B5
:1013500002283FD103E03F4A3EE03E4A3CE03C48A1
:10136000406800F4803CBCF5803F12D13848C06A28
:1013700000F08048B8F1000F01D1364C00E0364C47
:101380003348406800F40039B9F5003F02D1334CCE
:1013900000E0324C2E484068C0F383412C4840683E
:1013A00000F0006008B141F010012948406800F0E9
:1013B000804008B141F020010F2901D2891C06E0CC
:1013C0000F2903D33E2901D8491C00E03F2104FB2B
:1013D00001F201E01F4A00BF00BF1D484068C0F392
:1013E000031504A8465D22FA06F319484068C0F3C5
:1013F000022502A8465D23FA06F0099014484068C9
:10140000C0F3C2251DF8056023FA06F0089037B135
:10141000012F06D0022F06D0032F0AD106E00A9230
:1014200008E00A9306E009980A9003E008980A90F9
:1014300000E000BF00BF0A980CB0BDE8F08F0000CC
:101440000000000000000000010203040607080974
:101450000010024000127A00006CDC0200093D001E
:10146000064A02EB9011096800F01F0301229A401E
:101470001143024B03EB90121160704700100240C1
:10148000064A02EB9011096800F01F0301229A40FE
:101490009143024B03EB9012116070470010024021
:1014A000064A02EB9011096800F01F0301229A40DE
:1014B0001143024B03EB9012116070470010024081
:1014C000002000213E4A126842F480323C4B1A60F0
:1014D00000BF401C3A4A126802F4003111B9B0F55D
:1014E000006FF6D1364A126802F400320AB900BF22
:1014F000FEE7334AD26942F08052314BDA61314A19
:10150000126842F440422F4B1A602D4A52682C4B0D
:101510005A601A4652685A601A46526842F480620B
:101520005A601A46526822F440325A601A4652688B
:1015300042F440325A601A465268234B1A40204BFC
:101540005A601A465268214B1A431D4B5A601A467C
:10155000126842F080721A6000BF194A126802F0E5
:101560000072002AF9D0174A126842F48032154BF3
:101570001A6000BF134A526802F48032002AF9D080
:10158000104A126842F400320E4B1A6000BF0D4A36
:10159000526802F40032002AF9D0094A526822F057
:1015A0000302074B5A601A46526842F002025A6020
:1015B00000BF034A526802F00802002AF9D07047BF
:1015C0000010024000700040FFFFC3B70000340865
:1015D00010B5FFF775FF10BDCA43026170470246A0
:1015E000D06800EA01031069084010B10BB1012076
:1015F00070470020FCE700002DE9F04704460D4647
:101600000027B846B94600261D49601A8C421CD0F6
:1016100006DC1C48204470B1B0F5806F1FD10FE08C
:10162000B0F5806F16D0B0F56C4F18D10320FFF7DE
:101630006BFE074614E00220FFF766FE07460FE048
:101640000220FFF761FE07460AE00220FFF75CFE7A
:10165000074605E00220FFF757FE074600E000BFFF
:1016600000BF07EB5500B0FBF5F64FF6F07006EA49
:10167000000806F00F0948EA0900A060BDE8F087FD
:10168000004C004000BCFFBF01464868C0F30800A2
:101690007047C1F3080242607047000010B504466D
:1016A0002049601A8C4228D006DC1F48204490B1A3
:1016B000B0F5806F33D117E0B0F5806F26D0B0F56C
:1016C0006C4F2CD140F20E30FFF7EAFE40F20E30A4
:1016D000FFF7D6FE24E040F21140FFF7E1FE40F2B2
:1016E0001140FFF7CDFE1BE040F21240FFF7D8FE9D
:1016F00040F21240FFF7C4FE12E040F21340FFF741
:10170000CFFE40F21340FFF7BBFE09E040F2144069
:10171000FFF7C6FE40F21440FFF7B2FE00E000BF44
:1017200000BF10BD004C004000BCFFBF0A460021B6
:10173000416921F08001114341617047C16841F462
:101740000051C160704710B5024602EB911000686D
:1017500001F01F040123A340184008B1012010BD6F
:101760000020FCE710B500EB9112126801F01F0495
:101770000123A3401A4300EB91131A6010BD10B56A
:1017800000EB91521268C1F304440123A3409A4331
:1017900000EB91531A6010BD70B50246002300247F
:1017A000C1F38910105801F01F060125B54000EA69
:1017B000050302EB91500068C1F304460125B540D2
:1017C00000EA050414B10BB1012070BD0020FCE754
:1017D000C26822F4C062C260C2680A43C260704735
:1017E0000A460021C16821F004011143C16070471D
:1017F000026922F44052026102690A4302617047A1
:101800000A460021C16821F008011143C1607047F8
:10181000C26822F48052C260C2680A43C260704744
:101820005461736B310000005461736B320000002F
:10183000501800080000002088000000A40E0008D6
:10184000D81800088800002018640000B40E0008B2
:1018500088020020B90D00082018000801000000CF
:101860008800002080000000000000000000000050
:1018700008050020DD0D00082818000802000000FF
:1018800008030020800000000000000000000000AD
:101890000000000000000000000000000000000048
:1018A0000000000000000000000000002D040008FF
:1018B000B905000800000000000000000000000062
:1018C0000000000000000000000000000000000018
:0818D000000E270700000000D4
:0400000508000131BD
:00000001FF
